:020000040800F2
:10000000F01900209D010008498C00089D5A000845
:10001000DD8B0008450F0008EDFC00080000000023
:10002000000000000000000000000000F3C1000814
:10003000C1130008000000007991000869EE000873
:10004000B7010008B7010008B7010008B7010008B0
:10005000B7010008B7010008BD140008FB14000830
:10006000051500080F15000819150008B70100084C
:10007000B7010008B7010008B7010008B701000880
:10008000B701000889130008B7010008B70100088C
:10009000B7010008B7010008B701000823150008E0
:1000A000B7010008B7010008B7010008B701000850
:1000B000B7010008B7010008B7010008B701000840
:1000C000B7010008B7010008B7010008B701000830
:1000D000B7010008B70100084BFC000855FC0008F8
:1000E000C7140008ADA60008B7010008B701000852
:1000F000B7010008B7010008B7010008B701000800
:10010000B7010008B7010008B7010008B7010008EF
:10011000B7010008B7010008B7010008B7010008DF
:10012000B7010008B7010008B7010008B7010008CF
:10013000B7010008B7010008B7010008B7010008BF
:10014000B7010008B7010008B7010008B7010008AF
:10015000B7010008B7010008B7010008B70100089F
:10016000B7010008B7010008B7010008B70100088F
:10017000B7010008B7010008B7010008000000003F
:10018000B7010008B7010008DFF80CD000F09CFBB5
:100190000048004725120108F01900200648804752
:1001A00006480047FEE7FEE7FEE7FEE7FEE7FEE75C
:1001B000FEE7FEE7FEE7FEE739F0000889010008E8
:1001C0002DE9F05F0546002092469B46884606468C
:1001D000814640241BE0284641464746224600F01F
:1001E00080FA53465A46C01A914110D31146184618
:1001F000224600F067FA2D1A67EB01084F462246A7
:100200000120002100F05EFA17EB00094E41201E8C
:10021000A4F10104DFDC484631462A46434600F09B
:1002200000B830BCBDE8C09F40EA01039B0703D083
:1002300009E008C9121F08C0042AFAD203E011F825
:10024000013B00F8013B521EF9D27047D2B201E0E7
:1002500000F8012B491EFBD270470022F6E710B5CB
:1002600013460A4604461946FFF7F0FF204610BD24
:100270002DE9FE4F804681EA0300C00F0C46009036
:1002800021F0004123F00045B8EB0200A94105D25E
:100290004046214690461C460B46024623F000404D
:1002A000104347D0270DC7F30A00C3F30A51029049
:1002B000401A019040286BDAC3F3130040F4801B0E
:1002C0000098924620B10023D2EB030A63EB0B0B9C
:1002D00001985946C0F14002504600F0F3F9064635
:1002E0000D4650465946019A00F00BFA10EB0800F3
:1002F0006141002487EA115284EAE7731A4340D02F
:10030000009A62B3019A012A4FEA075215DC001BDA
:1003100061EB02014FF0004202EA0752CDE90042D0
:10032000001C41F5801132462B4600F00BFA03B059
:1003300000F045B840462146F9E7001B61EB020199
:10034000001C41F5801300185B412018A2F500172E
:1003500047EB030140EAD570B6196D4111E06D0815
:100360004FEA360645EAC0754FEA0752001B61EBBB
:100370000201001C41F5801149084FEA30000019C4
:10038000514132462B4603B000F01CB800F0CBB907
:100390000098012240000023D0EB020263EBE073DF
:1003A000009821464FEAE074B8EB000061EB0401CD
:1003B000E9E783F000435BE781F0004158E730BC98
:1003C000BDE8C08F30BCBDE8C04FFFF7DFBF2DE9EF
:1003D000FE4F81EA030404F0004421F00041009440
:1003E0004FF0000B23F0004350EA01045ED052EAC4
:1003F00003045BD0C3F30A54C1F30A552C44A4F29E
:10040000F3340194A0FB0254C1F3130141F48011B1
:10041000C3F3130343F4801301FB024400FB034EB8
:10042000840A970A44EA815447EA8357A4FB076881
:1004300002958D0A05FB07854FEA932C04FB0C54AB
:100440002705029D4FEA065847EA1637B5EB08051F
:100450006EEB070C870E920E47EA811742EA831271
:10046000A7FB0201B6EB0B0164EB00042B0D43EA82
:100470000C335E1844EB1C50DA465146E7FB020190
:10048000C5F313044FEA0B3343EA14534FEA043223
:10049000019C43EA0603A4F10C040294009CCDE9FC
:1004A00000B400F04FF903B000F003B8002001469B
:1004B000F9E730BCBDE8C08F2DE9F04D81EA0304B7
:1004C00004F0004B21F0004514464FF0000A23F0E1
:1004D000004150EA050220D054EA01021DD0C5F3C4
:1004E0000A570246C5F31303C1F31300C1F30A56BA
:1004F00040F4801543F48013A7EB0608101BD64682
:1005000008F2FD3873EB050002D308F1010801E0A1
:1005100092185B41B8F1000F03DA00200146BDE8F4
:10052000F08D00204FF48011064684460EE0171B24
:1005300073EB050705D3121B63EB050306434CEA77
:10054000010C49084FEA300092185B4150EA01075C
:10055000EDD152EA030012D082EA040083EA0501D9
:10056000084305D0101BAB4106D20122002306E050
:1005700000224FF0004302E06FF0010253101AEB2B
:1005800006004CEB085110EB0A0041EB0B01BDE8F3
:10059000F04D00F0C8B80EB5C10F80EAE070084415
:1005A000CA07002140F233438DE80E000A460B468D
:1005B00000F0C8F803B000BD0EB540F2334102911F
:1005C0000021CDE900110A460B4600F0BBF803B04C
:1005D00000BD70B5C1F30A5201F000450024C1F31B
:1005E000130140F2FF3341F480119A4201DA0020F6
:1005F00070BD40F233439A42A2F2334203DC5242CE
:1006000000F06FF800E090402C43F1D0404270BD04
:10061000C1F30A5210B5C1F3130140F2FF3341F4A4
:1006200080119A4201DA002010BD40F233439A4211
:10063000A2F2334203DC524200F053F810BD904066
:1006400010BD00F0004230F000400AD0C10D01F5AD
:100650006071C0F3160042EA0151C208400711431D
:10066000704700200146704730B5041E71F1000448
:1006700004DB4FF00044404264EB0101141E73F1AF
:10068000000405DB1C464FF00043524263EB0403B9
:10069000994208BF904230BD30B50B46014600205C
:1006A0002022012409E021FA02F59D4205D303FA34
:1006B00002F5491B04FA02F52844151EA2F10102B5
:1006C000F1DC30BD202A04DB203A00FA02F10020E0
:1006D00070479140C2F1200320FA03F31943904080
:1006E0007047202A04DB203A21FA02F000217047EB
:1006F00021FA02F3D040C2F120029140084319468A
:100700007047202A06DBCB17203A41FA02F043EA71
:10071000E07306E041FA02F3D040C2F120029140BA
:1007200008431946704710B5141E73F1000408DA27
:10073000401C41F1000192185B411A4301D120F0A5
:10074000010010BD2DE9F04D92469B4611B1B1FA62
:1007500081F202E0B0FA80F220329046FFF7B2FF59
:1007600004460F4640EA0A0041EA0B0153465A4646
:10077000084313D0114653EA010019D0C8F14002D2
:100780005046FFF7AEFF05460E46504659464246D4
:10079000FFF798FF084305D0012004E020463946C2
:1007A000BDE8F08D0020054346EAE0762C43374350
:1007B0000A986305E40AA0EB08000022FD0A44EA57
:1007C00047540A3002D500200146E9E70105101917
:1007D0006941DDE9084500196941BDE8F04DA2E72E
:1007E0002DE9F041054621F000400C46284309D090
:1007F000C4F30A5040F23341884205DD28462146C1
:10080000BDE8F0812846FBE740F2FE31884210DC6B
:100810000CDB4FEA043040EA155050EA053105D0B0
:10082000104804F0004101430020E9E700200146A0
:10083000E6E7A0F233404642C6F140022846214690
:10084000FFF740FF07468846284621463246FFF715
:1008500048FF43463A46FFF766FF3246BDE8F0419F
:10086000FFF730BF0000F03FC1F30A52C1F313019C
:1008700040F2FF3341F480119A4202DA002001462F
:10088000704740F233439A42A2F2334202DC5242B2
:10089000FFF727BFFFF716BF30B5041E71F1000444
:1008A00004DB4FF00044404264EB0101141E73F17D
:1008B000000405DB1C464FF00043524263EB040387
:1008C0008B4208BF824230BD064C074D06E0E0680F
:1008D00040F0010394E8070098471034AC42F6D387
:1008E000FFF756FC642301088423010870B58C18B7
:1008F00010F8015B15F0070301D110F8013B2A1134
:1009000006D110F8012B03E010F8016B01F8016B20
:100910005B1EF9D12B0705D40023521E0DD401F81C
:10092000013BFAE710F8013BCB1A921C03E013F8E5
:10093000015B01F8015B521EF9D5A142D8D300201A
:1009400070BD00002DE9F05F044688464FF00009B5
:100950004746206805F00AF98246206805F0F2F85B
:100960008346BAF1000F02D1BBF1000F6ED02068B0
:10097000C06800F0007000B3607E01281DD1207EA9
:1009800001281AD101270FE0314881450AD3606D53
:1009900040F010006065A06D40F00100A0650120EE
:1009A00000F05AB809F1010920680068C0F380100E
:1009B0000028E9D0402021680860022F10D020686C
:1009C00005F0D4F860B1206805F0C1F840B920689E
:1009D0008168204A114041F01001816000BF00BFD2
:1009E000012F10D0206805F0ADF860B1206805F047
:1009F000AEF840B920688168164A114041F02001E4
:100A0000816000BF00BF022F03D0032F03D10C254C
:100A100003E0082501E0042500BF00BF01F0D8FF76
:100A200006460EE001F0D4FF801B052809D9606D51
:100A300040F010006065A06D40F00100A06501204D
:100A4000AEE72068806828400028EBD10020A7E7A7
:100A5000000040A3C0FFFF7F30BCBDE8C09F000086
:100A600070B50446206805F072F80646206805F067
:100A700073F870B36EBB2068806800F00D00012829
:100A80000AD120688168174A1140891C816000BF23
:100A900003202168086009E0606D40F01000606587
:100AA000A06D40F00100A065012070BD01F090FF35
:100AB00005460FE001F08CFF401B02280AD9606D4B
:100AC00040F010006065A06D40F00100A0650120BD
:100AD000EBE705E02068806800F001000028E9D11C
:100AE0000020E2E7C0FFFF7F70B50446206805F0F4
:100AF00033F888BB206880681849084048B1606DA9
:100B000040F010006065A06D40F00100A06501207C
:100B100070BD206805F000F801F05AFF054615E0A9
:100B2000206805F019F810B9206804F0F5FF01F00D
:100B30004FFF401B022809D9606D40F0100060652E
:100B4000A06D40F00100A0650120E1E72068006889
:100B500000F001000028E3D00020D9E73F0000802A
:100B600030B589B005460C461022002105A810F0CA
:100B70001DFC224605A905A80FF08CFF9DF8140066
:100B800000F08000E8B100BF00200AE005A9095C80
:100B90004A0005AB411C595C42EAE11105AA115417
:100BA000401C0F28F2DB9DF823104906090E8DF832
:100BB000231000BF9DF8230080F087008DF82300EC
:100BC00016E000BF00200AE005A9095C4A0005AB59
:100BD000411C595C42EAE11105AA1154401C0F283E
:100BE000F2DB9DF823104906090E8DF8231000BF93
:100BF000D4F8140110280FD100BF002009E004F23E
:100C00000111095C05AA125C514004F20112115451
:100C1000401C1028F3DB5DE09DF8140000F080001C
:100C2000E8B100BF00200AE005A9095C4A0005AB55
:100C3000411C595C42EAE11105AA1154401C0F28DD
:100C4000F2DB9DF823104906090E8DF8231000BF32
:100C50009DF8230080F087008DF8230016E000BF88
:100C600000200AE005A9095C4A0005AB411C595C5B
:100C700042EAE11105AA1154401C0F28F2DB9DF84D
:100C800023104906090E8DF8231000BF802104F2BD
:100C90000110D4F81421815405E0002104F2011060
:100CA000D4F814218154D4F81401401CC4F8140160
:100CB0001028F2D300BF002009E004F20111095C02
:100CC00005AA125C514004F201121154401C102874
:100CD000F3DB00BF00BF00200AE004F1F101095C72
:100CE00004F20112125C514004F1F1021154401C53
:100CF0001028F2DB00BF102204F1F10101A810F06E
:100D00003BFB2246294601A80FF0C4FE1022002119
:100D100005A810F04BFB09B030BD10B504461022F9
:100D2000002104F1F10010F041FB0020C4F814018F
:100D3000F0220021204610F039FB10BD70B50446AA
:100D40000D462246102128460FF0D2FE70BD2DE937
:100D5000FF4104460F461546D4F8140100283BD045
:100D6000D4F81401C0F11000A84204D2D4F8140140
:100D7000C0F1100000E028460646B2B204F20111AC
:100D8000D4F814315818394610F0F6FAD4F8140192
:100D90003044C4F81401D4F81401102801D3B5422A
:100DA00001D100F048B800BF00200AE004F1F101D1
:100DB000095C04F20112125C514004F1F102115479
:100DC000401C1028F2DB00BF224604F1F101084666
:100DD0000FF060FE3744AD1B21E000BF002008E0AB
:100DE00004F1F101095C3A5C514004F1F102115443
:100DF000401C1028F4DB00BF102204F1F10168460A
:100E000010F0BAFA2246694668460FF043FE1022F7
:100E1000694604F1F10010F0AFFA1037103D102DC3
:100E2000DBD8AAB2394604F2011010F0A5FAC4F8D2
:100E3000145100BFB5E703BCBDE8FC811CB51048E8
:100E400090F84004A8B901208DF804000D4880688E
:100E500000900B49D1F88414087869460AF096FE90
:100E60000020074981F814040021054880F8401447
:100E700000BF034890F8121480F841141CBD000014
:100E800034080020980E00201CB51D4890F812046C
:100E90001B4991F81114884230DA194890F812046D
:100EA000401C174981F8120491F8120400EBD0712C
:100EB0004910A0EB4101012920D122208DF8040026
:100EC0000F48D0F8840490F82C018DF806000C48E7
:100ED000D0F8840490F8F9008DF805000849D1F89D
:100EE0008414087801A90AF044FE0090009841B2E9
:100EF0000348D0F8840480F8F91000BF1CBD00003E
:100F00003408002070470000DFED0B1AB0EE611AC4
:100F1000DFED091AB0EE610ADFED071AF0EE610AA3
:100F200080ED021A80ED010AC0ED000A0349C1609C
:100F30000349016170470000000000000D093E00F8
:100F4000AB03050000BFFEE72DE9FF5F04468846BE
:100F500091461F464FF0000A94F9105094F911B0D1
:100F6000A06838606079012857D102208DF80C0004
:100F7000A07C8DF80E00E07C03A90AF0FAFD029037
:100F8000029846B2B54201DD284600E030460546EB
:100F9000B54203D10020386082463EE0A189A068B6
:100FA000884202D34FF0010A01E04FF0000AA08905
:100FB000E1890844A16888422FD808208DF80C00E8
:100FC000E07C03A90AF0D5FD029002984FFA80FB5D
:100FD000E189A068B0FBF1F201FB120001281CD1ED
:100FE00022208DF80C008DF80D50A07C8DF80E009D
:100FF000E07C03A90AF0BDFD0290029845B2B5421B
:101000000BD14FF0000A2079012806D18DF8040099
:10101000E07C69460AF0BAFD00BF88F8005089F804
:1010200000B0504604B000F000B830BCBDE8C09F2E
:101030003EB504462548D0F8840490F8D40118B988
:1010400000208DF8000002E001208DF800001F480C
:10105000D0F8840490F83D018DF802008DF803402B
:101060001A49D1F88414D1F8CC010EF025F801907A
:101070001648D0F81804029000208DF8010013489B
:1010800090F88104C0F3800030B1002005F020FC0E
:1010900010B101208DF801000C49D1F884140878B2
:1010A00069460AF016FA0948D0F818040749D1F839
:1010B0008414B1F8C21148430449D1F81814401AF5
:1010C0000249D1F88414C1F8C8013EBD340800209B
:1010D00010B504460748D0F8480350B10548D0F889
:1010E0004803806828B10348D0F848038168204647
:1010F000884710BD3408002038B505460C4600204E
:1011000000906946284600F055FB08B1002038BD24
:101110000098844202D80098401C08B90120F6E7E4
:101120000020F4E70B4890F812040A4991F81114D2
:10113000884201DB01207047064890F88104C0F323
:10114000400028B1034890F84004012800D1F2E79C
:101150000020F0E734080020104890F81014D0F870
:10116000840490F81801814201DB012070470B488C
:1011700090F88104C0F3400068B10848D0F88404B6
:1011800090F8F00008B90120F0E7044890F82D0429
:1011900008B90120EAE70020E8E700003408002051
:1011A0002DE9F04385B004460E4691461F46DDF812
:1011B000308016B1B8F1000F03D1022005B0BDE8B0
:1011C000F0831748FFF7A9FD6946384600F0D8FAC2
:1011D00005461DBB0099491C1148FFF7AFFD24B11E
:1011E000102221460E48FFF7B2FD4A4631460C4810
:1011F000FFF7ADFD0A4901A8FFF7B2FC9DF8070013
:1012000000069DF8061040EA01409DF8051040EAEE
:1012100001209DF804100843C8F800002846CDE7D7
:10122000401300202DE9F04F87B005460C461646C6
:101230001F46DDE911ABDDF84090DDF84C8015B1BB
:10124000B8F1000F03D10A2007B000F01CB8B4F5C4
:10125000807F01DD0E20F7E703A84B463A46314672
:10126000CDE900AB0290204607F088FF33462246C6
:10127000294603A8CDF800800CF0F8FF08B10F2034
:10128000E2E70020E0E730BCBDE8C08F30B50246A1
:10129000002300200AE001248440144001258540F9
:1012A000AC4201D15C1CE3B2441CE0B28842F2DBE8
:1012B000184630BD2DE9F84F0746884691461E4630
:1012C0004FF0000AD34600250020009051E0002492
:1012D00046E0009839F810000121A140084098B379
:1012E000281900EB400056F8200000B936E02FB96D
:1012F0000120A04000F0030000B92FE0281900EB06
:10130000400006EB800090F908000211281900EB5C
:10131000400006EB8000007A40F303014FFA88F0AA
:101320000AF0F6FB00B919E0281900EB400006EBC3
:101330008000417A0A9800EB0110C06828B10BF1D7
:10134000010000F0FF0B09E007E02819C2B2504687
:10135000411C01F0FF0A0B990A5400BF601CC4B283
:10136000102CB6DB05F11000C5B20098401CC0B2CD
:101370000090102DABDB0C9880F800B0504600F0C8
:1013800000B818BCBDE8E08F10B510F0C7F910BD6B
:1013900030B590F8444004F01C050124AC40056CC5
:1013A0006C60046863608468102C04D10468A260D7
:1013B0000468E16003E00468A1600468E26030BD95
:1013C000704700002DE9FF4104460F4615461E46B2
:1013D0000FB105B11EB90A2004B0BDE8F0810020AC
:1013E0000090019002900390052C06D0062C05D0A9
:1013F000072C04D0082C0AD105E000BF00BF012053
:101400008DF8000005E002208DF8000001E00B20BF
:10141000E2E700BF032239460DF101000FF0ACFFF7
:101420000322294601A80FF0A7FF022231460DF141
:1014300007000FF0A1FF0748234602226946D0F8B3
:1014400004C0DCF800000CF027FF08B10F20C3E750
:101450000020C1E708100020024602B109B90320AC
:101460007047107B00F00F00002806DD92F8200086
:10147000002802DD002008701CE092F8280010B956
:101480000120087016E0107B00F00F0028B992F8D8
:10149000200010B9022008700CE0107B00F00F0053
:1014A00030B992F82000002802DD0320087001E026
:1014B0001720D5E70020D3E77047704710B501200B
:1014C00001F070F910BD10B54FF4806001F06AF9B9
:1014D0004FF4006001F066F94FF4805001F062F9BA
:1014E0004FF4005001F05EF94FF4804001F05AF9DA
:1014F0004FF4004001F056F910BD10B5022001F084
:1015000051F910BD10B5042001F04CF910BD10B513
:10151000082001F047F910BD10B5102001F042F984
:1015200010BD10B5202001F03DF9402001F03AF93E
:10153000802001F037F94FF4807001F033F94FF457
:10154000007001F02FF910BD00BF03A00DF03AFFAD
:1015500000BF00BFFEE700004572726F725F486116
:101560006E646C65720A0D0010B50520FFF7B0FDC2
:1015700010BD10B50420FFF7ABFD10BD10B506205F
:10158000FFF7A6FD10BD10B50220FFF7A1FD10BDAD
:1015900010B50020FFF79CFD10BD10B50120FFF72E
:1015A00097FD10BD10B50320FFF792FD10BD10B5DB
:1015B00004460CB9002010BD1022002120460FF077
:1015C000F5FE0120F7E7000001460B4850F8210026
:1015D000A0F5F430483840B1A0F5F430483830B1C7
:1015E000A0F57430903820B100BF00207047012072
:1015F000FCE70220FAE70000E41A010808B51948E0
:10160000194908604FF4EE70486001F1140005F0CC
:1016100075FA15490861002000901449D1F8841426
:10162000087869460AF09BFA0F4988600098C860FC
:1016300001F11C000CF066FE0B49886101F12400E9
:1016400004F0D8FF0849086201F12C0004F076FF8D
:101650000549886201F1340005F0C2F802490863C7
:10166000084608BDBC0C0020980E0020340800205D
:101670002DE9F04105460E461746344609E020782C
:10168000A84202D12046BDE8F081204604F00AFAC3
:101690000446BC42F3D10020F5E72DE9FF4705469B
:1016A0000E461746DDE90C94DDF838801FB114B101
:1016B000B8F1000F03D10A2004B0BDE8F087052D72
:1016C00020D2DFE805F01316191C03009DF80E0068
:1016D000012808D10EB1032E02D10220207004E0AF
:1016E0000120207001E0032020700DE00420207014
:1016F0000AE00520207007E00620207004E00720A3
:10170000207001E00520D7E700BFFA892078434622
:10171000494605F09DF9CFE70246002111E00B484C
:1017200050F8310090420AD8084B481C53F830005A
:10173000904204D9184600EBC10000797047481C5C
:10174000C1B21529EBD300BFFEE700001419010850
:1017500002460B4600210CE0084810F82100904298
:1017600005D1064800EB8100186000207047481C36
:10177000C1B20529F0DB0C20F8E70000F4010020DD
:1017800010B502460B4600210EE001EB011408489B
:10179000005D904206D101EB011405482044186019
:1017A000002010BD481CC1B21829EEDB0320F8E769
:1017B00058140020024609B90A207047082A3AD274
:1017C000DFE802F039040F1A252A2F341C4840683C
:1017D000006908601A4840681030194B5B6818634C
:1017E0002BE017484068406908601548406814308D
:1017F000134B5B68186320E01148406880690860FB
:101800000F48406818300E4B5B68186315E00C48B1
:101810004068C069086010E009484068006A0860D4
:101820000BE007484068406A086006E004484068EA
:10183000806A086001E00520BFE700BF0020BCE728
:10184000081000201CB504461048D0F8840490F815
:101850002C018DF806008DF805400D208DF8040050
:101860000A48D0F8840490F83F01012802D10E20E4
:101870008DF804000549D1F88414087801A90AF00C
:1018800078F900900098C0B21CBD00003408002018
:10189000024600238A4201D1CBB201E0501EC3B2FE
:1018A00058B27047F8B504460D460020009000BFBE
:1018B00094F85000012801D10220F8BD012084F8DD
:1018C000500000BF2046FFF7CBF806468EBB606D88
:1018D00020F4885040F002006065206881681B4A4F
:1018E000114005F0804242F000421143816000BF88
:1018F00013E00098401C00900098B0F5912F0CD395
:10190000606D20F0020040F01000606500BF002014
:1019100084F8500000BF0120CFE720688168C90F1C
:101920000029E6D1606D20F0020040F00100606502
:1019300004E0FFE7606D40F01000606500BF00202C
:1019400084F8500000BF3046B7E70000C0FFFF3FFB
:101950002DE9F84F05460C464FF0000A0020009094
:10196000FE49E068884200D000E000BF00BF95F863
:101970005000012802D1022000F05CBA012085F855
:10198000500000BF286804F0F1F8002872D16068A8
:1019900005281AD86068022806D0032807D0042832
:1019A00008D005280DD108E00C2060600CE0122062
:1019B000606009E01820606006E04FF480706060AD
:1019C00002E00620606000BF00BF2968D4E9002063
:1019D00001F1300CC0F3012B0CEB8B03D3F800C0EA
:1019E00000F01F0E4FF01F0B0BFA0EFB2CEA0B0C36
:1019F00000F01F0BC2F3846E0EFA0BFE4CEA0E0CC5
:101A0000C3F800C000BF286804F0B0F88146286819
:101A100004F098F88046B9F1000F2AD1B8F1000F10
:101A2000FBD1A2682168286804F0B6F860692968CB
:101A3000C968C1F3C101490000FA01F7206904280F
:101A400019D028682268216900F1600C0CEB810331
:101A5000D3F800C0DFF808B30CEA0B0C02F0F84B27
:101A60004BF0004B4BEA070B4CEA0B0CC3F800C0E1
:101A700000BFA8E0C2E10021286804F05AF8C0F3D2
:101A8000120030B90021286804F053F8C0F38460D4
:101A900007E00021286804F04CF890FAA0F0B0FAB2
:101AA00080F02168C1F3120119B92168C1F3846182
:101AB00004E0216891FAA1F1B1FA81F1884204D1E0
:101AC00000221146286804F081F80121286804F0FA
:101AD00030F8C0F3120030B90121286804F029F869
:101AE000C0F3846007E00121286804F022F890FA2E
:101AF000A0F0B0FA80F02168C1F3120119B9216891
:101B0000C1F3846104E0216891FAA1F1B1FA81F195
:101B1000884204D100220121286804F057F80221EC
:101B2000286804F006F8C0F3120030B902212868D2
:101B300003F0FFFFC0F3846007E00221286803F090
:101B4000F8FF90FAA0F0B0FA80F02168C1F312011A
:101B500019B92168C1F3846104E0216891FAA1F107
:101B6000B1FA81F1884204D100220221286804F0F0
:101B70002DF80321286803F0DCFFC0F3120030B910
:101B80000321286803F0D5FFC0F3846007E0032138
:101B9000286803F0CEFF90FAA0F0B0FA80F0216838
:101BA000C1F3120119B92168C1F3846104E021680D
:101BB00091FAA1F1B1FA81F1884204D10022032106
:101BC000286804F003F8286803F0C6FF002870D1E5
:101BD0002868E2682168D0F8B0C0C1F312032CEA8B
:101BE000030C02F0180B5F4B23FA0BF30B404CEA8B
:101BF000030CC0F8B0C000BF5849E068884258D113
:101C00002368C3F312031BB92368C3F3846304E09E
:101C1000236893FAA3F3B3FA83F35B1C03F01F0367
:101C2000092B3ED82368C3F312031BB92368C3F3FF
:101C3000846304E0236893FAA3F3B3FA83F35B1C91
:101C400003F01F034FF0010C0CFA03FC2368C3F3ED
:101C500012031BB92368C3F3846304E0236893FA77
:101C6000A3F3B3FA83F35B1C03F01F034CEA836C0A
:101C70002368C3F312031BB92368C3F3846304E02E
:101C8000236893FAA3F3B3FA83F35B1C03F01F03F7
:101C900003EB43034FF0000B4BEA03534CEA0303FF
:101CA0003FE02368C3F3120323B92368C3F38463BB
:101CB00005E03BE0236893FAA3F3B3FA83F35B1CDC
:101CC00003F01F034FF0010C0CFA03FC2368C3F36D
:101CD00012031BB92368C3F3846304E0236893FAF7
:101CE000A3F3B3FA83F35B1C03F01F034CEA836C8A
:101CF0002368C3F312031BB92368C3F3846304E0AE
:101D0000236893FAA3F3B3FA83F35B1C03F01F0376
:101D10000A3B03EB43034FF0007B4BEA03534CEACF
:101D200003031946A268286803F036FF0E492068AD
:101D30000840A0B300BF0D48806800F0E07600BF07
:101D40000B492068884233D106F4000040BB0949A2
:101D50002868884214D0084928680FE000007F40B6
:101D600000F0FF03FFFF070000000880000304509D
:101D7000000052C70000045000020450884243D1C2
:101D800046F40001244803F01BFF2448006824495E
:101D9000B0FBF1F000EB40008000009004E01BE09D
:101DA00006E00098401E009000980028F9D12BE032
:101DB0001C492068884210D106F0807068B91A4921
:101DC0002868884203D01949286888421CD146F007
:101DD0008071114803F0F4FE16E01549206888422E
:101DE00012D106F4800078B90F49286888420BD1D7
:101DF00046F48001084803F0E3FE05E0686D40F01A
:101E0000200068654FF0010A00BF002085F85000EF
:101E100000BF5046B0E50000000304507C000020E5
:101E2000400D0300000084CB000004500002045069
:101E30000100008018BCBDE8E08F000070B50446CA
:101E40000CB9012070BD606D40F002006065032197
:101E50002046FEF777FD05462068C06840F4001074
:101E60002168C86035B92046FEF7FAFD05460DB970
:101E700001206065206840686FF30A0021684860AF
:101E800040F2FF70216808602068806820F0A04060
:101E9000216888602068806840F000502168886070
:101EA0002068C068514908402168C8602068C0683F
:101EB00040F000402168C860206800696FF30A00A4
:101EC000216808612068406900F04040216848614D
:101ED0002068806900F07840216888612068006A85
:101EE00000F0F020216808622068406A00F0FF20BE
:101EF000216848622068806A00F0FF2021688862BB
:101F00002068006B3A490840216808632068406BEC
:101F1000374910390840216848632068806B34498C
:101F200010390840216888632068C06B40F2DF7177
:101F300088432168C8632068006E2E4908402168E4
:101F400008662068406E2B49084021684866206872
:101F5000806E28490840216888662068C06E25493F
:101F600008402168C8662068D0F8A0006FF312000E
:101F70002168C1F8A0002068D0F8A4006FF3120017
:101F80002168C1F8A4002068D0F8B0006FF31200F7
:101F90002168C1F8B0002068D0F8B40020F07F10AC
:101FA0002168C1F8B400144803F0D6FD0646134872
:101FB00003F0D2FD0643124803F0CEFD064336B9C6
:101FC00010480068104908400B49C1F80803204632
:101FD00000F031F90020A065E06500212166606510
:101FE00000BF84F8500000BF28462BE70480008023
:101FF000300882E000F0FF030000045000010450AC
:102000000002045008030450E01000FE0146086876
:10201000006C70472DE9F84F04464FF0000900208E
:10202000009014B9012000F003B9206920B12020EC
:10203000005D012800D100BF606D30B9204600F07E
:10204000FBF80020A06584F8500020688168C1F387
:10205000407131B1206881686C4A1140816000BFD5
:1020600000BF206803F07DFDA0B920688168684A40
:10207000114041F08051816000BF664800686649A8
:10208000B0FBF1F0009002E00098401E0090009834
:102090000028F9D1206803F064FD48B9606D40F074
:1020A00010006065A06D40F00100A0654FF00109CF
:1020B000206803F05BFD0646606D00F0100000280C
:1020C0007BD1002EFCD1606D20F4807040F00200C6
:1020D0006065206803F040FDD0B9504803F03CFD36
:1020E00082464F4803F038FD4AEA000A4D4803F0A3
:1020F00033FD4AEA000ABAF1000F09D160684A4983
:10210000896821F47C110143474A916000BF00BFF8
:10211000607E616B41EA4030E1680843A168084392
:102120002021095D40EA01452020005D012803D1FE
:10213000A08C401E45EA4045A06A28B1208D00F4DD
:102140007070E16A084305432068C0683749084059
:1021500028432168C860206803F008FD8046206895
:1021600003F0F0FC0746B8F1000F2DD127BB207E0D
:10217000002141EA803194F8300041EA40052068AE
:10218000C06844F20201884328432168C86094F87B
:102190003800012812D1E06B40F00101206C0843A7
:1021A000616C0843A16C08432168096940F2FC7224
:1021B000914308432168086106E01FE02068006938
:1021C00020F00100216808612069012809D12068F8
:1021D000006B20F00F00E169491E08432168086385
:1021E00005E02068006B20F00F0021680863606D37
:1021F00020F0020040F00100606505E0606D40F0F5
:10220000100060654FF0010948460CE7C0FFFF5F12
:10221000C0FFFF7F7C000020400D03000000045041
:1022200000010450000204500003045007C0F0FFF6
:1022300018BCBDE8E08F7047704700002DE9F047FB
:1022400004460F46464803F06FFC054660690828BF
:1022500001D108261FE01DB1052D01D0092D0DD19A
:102260002068C06800F0010030B1606D40F02000CF
:1022700060650120BDE8F08704260CE000BF384807
:10228000806800F4604028B1606D40F02000606517
:102290000120EFE7042600F09BFB804613E0781C4A
:1022A00088B100F095FBA0EB0800B84200D857B900
:1022B000606D40F00400606500BF002084F85000AD
:1022C00000BF0320D6E72068006830400028E6D031
:1022D000606D40F400706065206803F04CFC98B1BC
:1022E000607E88B92068006800F0080008280BD1DB
:1022F000606D20F480706065606D00F4805018B9E6
:10230000606D40F00100606516492068884201D187
:10231000154800E020682168884204D01DB1052DD1
:1023200001D0092D03D12068D0F80C9009E00D49A7
:102330002068884201D10C4800E020688246DAF823
:102340000C90082E03D108202168086005E009F4EC
:10235000804010B90C202168086000208AE7000046
:102360000003045000010450000004502DE9F04126
:102370000446424803F0D8FB0646206803F0F6FB0B
:10238000002877D100BF94F85000012802D1022024
:10239000BDE8F081012084F8500000BF2046FEF720
:1023A000A3FB0546002D60D1606D40F601618843B6
:1023B00040F48070606532492068884201D131481C
:1023C00000E020682168884200D01EB9606D20F4CA
:1023D00080106065606D00F48050B0F5805F04D1BE
:1023E000A06D20F00600A06501E00020A0651C2083
:1023F0002168086000BF002084F8500000BF204919
:102400002068884201D11F4800E020682168884286
:1024100004D01EB1052E01D0092E0ED12068C0684F
:1024200000F0007028B1606D20F4005040F480503E
:102430006065206803F0A8FB1DE0606D40F480102B
:1024400060650F492068884201D10E4800E020688D
:102450000746F86800F0007068B1606D20F4005025
:1024600040F48050606506E004E000BF002084F87E
:10247000500000E0022528468AE7000000030450CF
:10248000000104500000045070B50446002594F883
:102490002500022803D00420E063012520E0206805
:1024A000006820F00E00216808602068006820F0B5
:1024B00001002168086094F8440000F01C0101202C
:1024C0008840216C4860012084F8250000BF00206E
:1024D00084F8240000BFA06B10B12046A16B884790
:1024E000284670BD70B50446206C056820680668F3
:1024F00094F8440000F01C01042088402840E0B11A
:1025000006F00400C8B12068006800F0200028B977
:102510002068006820F004002168086094F84400F6
:1025200000F01C0104208840216C4860206B0028CA
:1025300056D02046216B884752E094F8440000F0C2
:102540001C0102208840284018B306F0020000B3A6
:102550002068006800F0200040B92068006820F082
:102560000A0021680860012084F8250094F84400DE
:1025700000F01C0102208840216C486000BF002050
:1025800084F8240000BFE06A50B32046E16A88471F
:1025900026E094F8440000F01C0108208840284000
:1025A000F0B106F00800D8B12068006820F00E00F5
:1025B0002168086094F8440000F01C010120884064
:1025C000216C48600120E06384F8250000BF0020F2
:1025D00084F8240000BF606B10B12046616B88470F
:1025E00070BD000010B5014609B9012010BD3E4B79
:1025F000086898420BD23D4B0868C01A1423B0FB00
:10260000F3F0800048643948083808640AE0364B23
:102610000868C01A1423B0FBF3F080004864324805
:1026200008380864022081F825000868026847F627
:10263000F0708243D1E9020318430B6918434B69D8
:1026400018438B691843CB6918430B6A184302433C
:10265000086802608868B0F5804F3AD0234B083B89
:10266000086C98421BD1D0F8A80091F8443003F0D0
:102670001C040F23A34098431C4BA033186091F80F
:10268000443003F01C0348689840184B083BD3F8CB
:10269000A8301843154B083BC3F8A80019E01248AE
:1026A000A030006891F8443003F01C040F23A340CD
:1026B00098430D4BA033186091F8443003F01C038D
:1026C00048689840084BA0331B681843064BA0335A
:1026D00018600020C863012081F82500002081F8DF
:1026E000240000BF82E70000080402400800024006
:1026F0002DE9F04104460D4616461F464FF00008EE
:1027000000BF94F82400012802D10220BDE8F08126
:10271000012084F8240000BF94F8250001282CD162
:10272000022084F825000020E0632068006820F083
:102730000100216808603B46324629462046FEF7E4
:1027400027FE206B30B12068006840F00E00216841
:1027500008600BE02068006820F004002168086031
:102760002068006840F00A0021680860206800685E
:1027700040F001002168086006E000BF002084F8F6
:10278000240000BF4FF002084046BFE701B50098A3
:1027900002F000FE08BD10B50446204602F02CFCF5
:1027A00010BD000010B5044604480068204020B168
:1027B000024804602046FFF7EEFF10BD14040140FC
:1027C00078B503460022E5E0012696400D6805EA4B
:1027D0000604002C7DD04D68022D02D04D68122DCC
:1027E00013D1D60803F1200555F826005507EE0E43
:1027F0000F25B540A8435607F60E0D69B54028438E
:10280000D60803F1200545F8260018685600032570
:10281000B540A8430D7905F003055600B54028439F
:1028200018604D68012D08D04D68022D05D04D6807
:10283000112D02D04D68122D13D198685600032532
:10284000B540A8435600CD68B54028439860586805
:1028500001259540A8430D79C5F3001595402843FF
:1028600058600D7905F00305032D09D1D86A0125BB
:102870009540A8430D79C5F3C00595402843D8621B
:10288000D86856000325B540A84356008D68B5406A
:102890002843D8604D6805F08055B5F1805F78D148
:1028A00000BF3F4D2D6E45F001053D4E3566354666
:1028B0002D6E05F00105009500BF00BF4FEAB6354B
:1028C000960855F8260095072E0F0F25B540A8430A
:1028D00000E05EE0B3F1904F01D100251EE0314DE4
:1028E000AB4201D1012519E02F4DAB4201D10225A8
:1028F00014E02E4DAB4201D103250FE02C4DAB422D
:1029000001D104250AE02B4DAB4201D1052505E09C
:10291000294DAB4201D1062500E007259607360F69
:10292000B5402843254D960845F82600244D2868D3
:10293000A0434D6805F48035B5F5803F00D12043B4
:102940001F4D28602D1D2868A0434D6805F40035F3
:10295000B5F5003F00D12043194D2D1D28602D1DD8
:102960002868A0434D6805F48015B5F5801F00D197
:102970002043134D083528602D1D2868A0434D685D
:1029800005F40015B5F5001F00D120430C4D0C35A2
:102990002860521C0D68D540002D7FF415AF78BD1E
:1029A000001002400004004800080048000C0048E5
:1029B00000100048001400480018004808000140BA
:1029C000000401400AB1816100E0816270470000AB
:1029D000014800687047000070000020034800684C
:1029E00003490968084401490860704770000020E5
:1029F0007800002010B50024032000F079F80F20A3
:102A000000F007F808B1012401E000F005F82046C5
:102A100010BD01460020704708B500BF0A48806D10
:102A200040F08050084988650846806D00F080506D
:102A3000009000BF00BF0846806820F40040886016
:102A400002F0AAFB08BD0000001002400146084643
:102A5000002809DB00F01F0301229A4043099B0074
:102A600003F1E023C3F8002100BF70472DE9F05FB8
:102A700080460D46164600270DF0C4F90746394634
:102A80002A46334601F00700C0F1070ABAF1040FE5
:102A900002D94FF0040A01E0C0F1070AD14600F163
:102AA000040ABAF1070F02D24FF0000A01E0A0F1C8
:102AB000030AD4464FF0010A0AFA09FAAAF1010AF8
:102AC0000AEA020A0AFA0CFA4FF0010B0BFA0CFBA5
:102AD000ABF1010B0BEA030B4AEA0B04214640461B
:102AE0000DF098F900F000B830BCBDE8C09F0000C0
:102AF00000BF00F00702064B19684FF6FF031940AC
:102B0000044B0B4343EA0221014B196000BF70479D
:102B10000CED00E00000FA050246B2F5007F2AD174
:102B20001D48006800F4C060B0F5007F32D01A483C
:102B3000006820F4C06040F40070174B186017481C
:102B4000006832235843164BB0FBF3F0411C00E001
:102B5000491E1148406900F48060B0F5806F01D1D2
:102B60000029F5D10C48406900F48060B0F5806F11
:102B700010D1032070470848006800F4C060B0F529
:102B8000806F07D00448006820F4C06040F4806083
:102B9000014B18600020EDE7007000407C00002031
:102BA00040420F001148006820F480400F4A106036
:102BB0000F480068322250430E4AB0FBF2F0411C2D
:102BC00000E0491E0948406900F40070B0F5007F3C
:102BD00001D10029F5D10548406900F40070B0F535
:102BE000007F01D1032070470020FCE70070004007
:102BF0007C00002040420F000348006840F4804001
:102C00000149086070470000007000400C490968E5
:102C100021F007010A4A11600A49096841F00401DC
:102C2000084A1160012801D130BF02E040BF20BF37
:102C300020BF0449096821F00401024A116070476D
:102C40000070004010ED00E00D49096821F0070117
:102C5000491C0B4A11600B49096841F00401094AFB
:102C60001160012801D130BF02E040BF20BF20BF6A
:102C70000449096821F00401024A1160704700000C
:102C80000070004010ED00E00248006800F4C060F1
:102C9000704700000070004070B504460D4654B9FE
:102CA0001048406900F40070B0F5007F0AD1FFF7CA
:102CB00079FF38B170BD0B484069C0F3402008B9B6
:102CC000FFF79AFF0848006820F0040006490860F2
:102CD000012D01D130BF02E040BF20BF20BF00BFA7
:102CE000E8E700000070004010ED00E070B5054618
:102CF0000C46B5F5804F03D12046FFF7A5FF02E053
:102D00002046FFF783FF70BD2DE9F84304460025F8
:102D1000A846208800F40060B0F5006F30D1606EE6
:102D200080B1B0F5800F13D0B0F5000F03D0B0F52F
:102D3000400F15D113E0FB48C06840F48030F949DA
:102D4000C8600FE00021201D07F0EAFA054609E0FF
:102D5000002104F1200007F0A9FB054602E001E094
:102D6000012500BF00BF55B9EE488830006820F447
:102D70004000616E0843EB49C1F8880000E0A846B6
:102D8000208800F48050B0F5805F30D1A06E80B113
:102D9000B0F1807F13D0B0F1007F03D0B0F1407F5D
:102DA00015D113E0DF48C06840F48030DD49C860C9
:102DB0000FE00021201D07F0B3FA054609E00021CD
:102DC00004F1200007F072FB054602E001E0012556
:102DD00000BF00BF55B9D3488830006820F040706C
:102DE000A16E0843CF49C1F8880000E0A8462068DA
:102DF00000F40030B0F5003F77D14FF00009C9482A
:102E0000806D012121EA107078B100BFC548806D46
:102E100040F08050C34988650846806D00F08050BE
:102E2000009000BF00BF4FF00109BF48006840F4A8
:102E30008070BD490860FFF7CBFD074606E0FFF74D
:102E4000C7FDC01B022801D9032505E0B64800686C
:102E500000F480700028F2D000BF85BBB1489030EC
:102E6000006800F44076D6B1D4F88400B04216D0A1
:102E7000AC489030006820F44076AA48D0F8900022
:102E800040F48030A749C1F890000846D0F890007F
:102E900020F48030C1F890000846C0F8906006F039
:102EA0000100A8B1FFF794FD074609E0FFF790FD88
:102EB000C01B41F28831884202D9032507E017E0A0
:102EC00098489030006800F002000028EED000BF63
:102ED00065B994489030006820F44070D4F88410AC
:102EE00008439049C1F8900003E00CE0A84600E0D8
:102EF000A846B9F1010F05D18A48806D20F08050B5
:102F00008849886500BF207800F0010048B18548F5
:102F10008830006820F00300A16B08438149C1F8A4
:102F20008800207800F00200022809D17D4888300E
:102F3000006820F00C00E16B08437A49C1F8880072
:102F4000207800F00400042809D176488830006811
:102F500020F03000216C08437249C1F888002078C5
:102F600000F00800082809D16E488830006820F079
:102F7000C000616C08436B49C1F88800207800F0FC
:102F80001000102809D167488830006820F440708C
:102F9000A16C08436349C1F88800207800F0200044
:102FA000202809D15F488830006820F44060E16C37
:102FB00008435C49C1F88800208800F40070B0F52F
:102FC000007F09D157488830006820F44020E16D27
:102FD00008435449C1F88800208800F48060B0F5A7
:102FE000806F09D14F488830006820F44010216E6E
:102FF00008434C49C1F88800207800F04000402880
:1030000009D148488830006820F44050216D0843B9
:103010004449C1F88800207800F08000802809D158
:1030200040488830006820F44040616D08433D49C5
:10303000C1F88800208800F48070B0F5807F09D145
:1030400038488830006820F44030A16D0843354985
:10305000C1F88800208800F40050B0F5005F1FD14F
:1030600030488830006820F04060E16E08432D4908
:1030700088310860E06EB0F1006F06D12948C06861
:1030800040F480102749C8600AE0E06EB0F1806F1C
:1030900006D10121201D07F043F9054605B1A846D8
:1030A000206800F40020B0F5002F1FD11D488830A3
:1030B000006820F04060216F08431A498831086099
:1030C000206FB0F1006F06D11648C06840F4801040
:1030D0001449C8600AE0206FB0F1806F06D1012169
:1030E000201D07F01DF9054605B1A846206800F42B
:1030F0008020B0F5802F24D10A488830006820F065
:103100004060616F0843074988310860606FB0F123
:10311000006F0BD10348C06840F480100149C860BB
:103120000FE000000010024000700040606FB0F13E
:10313000806F06D10121201D07F0F2F8054605B188
:10314000A846208800F48040B0F5804F1FD1224867
:10315000006820F04050A16F08431F490860A06F2D
:10316000B0F1805F07D10221201D07F0D9F8054694
:103170006DB1A8460BE0A06FB0F1005F07D102214E
:1031800004F1200007F092F9054605B1A846208811
:1031900000F40040B0F5004F09D10F48006820F05E
:1031A0008040E16F08430C498839C1F888002068E5
:1031B00000F48030B0F5803F0AD10748006820F065
:1031C0000040D4F88010084303498839C1F88800CA
:1031D0004046BDE8F8830000881002402DE9F04128
:1031E00004460D4614B90120BDE8F0815548006839
:1031F00000F00700A8420ED25248006820F00700F5
:103200002843504908600846006800F00700A842BB
:1032100001D00120E8E7207800F00100002840D02C
:103220006068032806D14848006800F00070D8B9EB
:103230000120D9E76068022806D14348006800F4FD
:10324000003088B90120CFE7606830B93E48006897
:1032500000F0020040B90120C6E73B48006800F4D6
:10326000806008B90120BFE73748806820F003007C
:103270006168084334498860FFF7AAFB064608E006
:10328000FFF7A6FB801B41F28831884201D9032059
:10329000AAE72D48806800F00C006168B0EB810F50
:1032A000EED1207800F00200022807D1264880687D
:1032B00020F0F000A1680843234988602148006895
:1032C00000F00700A8420ED91E48006820F0070051
:1032D00028431C4908600846006800F00700A8421F
:1032E00001D0012080E7207800F00400042807D1F5
:1032F0001548806820F4E060E1680843124988605E
:10330000207800F00800082808D10F48806820F4D1
:103310006050216940EAC1000B49886000F002F961
:1033200009498968C1F30311084A515C01F01F0182
:10333000C8400749086007480068FFF76AFB07466E
:10334000384651E70020024000100240DC19010815
:103350007C000020740000200F2202600D4A926859
:1033600002F0030242600B4A926802F0F0028260AF
:10337000084A926802F4E062C260064A926802F467
:103380006052D2080261044A126802F007020A6021
:103390007047000000100240002002400148006811
:1033A000704700007C0000201F2101604A49096825
:1033B00001F48021B1F5802F03D14FF4A0214160A9
:1033C0000CE04549096801F48031B1F5803F03D133
:1033D0004FF48031416001E0002141603E490968BD
:1033E00001F0010111B10121816101E00021816140
:1033F00039494968C1F30721C1613749096801F0BA
:10340000F00101623449096801F48071B1F5807FEF
:1034100003D14FF48071C16001E00021C1602E49E9
:103420004968C1F3046101612B499031096801F0D9
:103430000401042902D1052181600AE02649903166
:10344000096801F0010111B10121816001E0002151
:10345000816021499431096801F0010111B1012114
:10346000416101E000214161002141621A4909687E
:1034700001F08071B1F1807F02D10221816201E00F
:10348000012181621449C96801F00302C262124934
:10349000C968C1F30211491C01630F49C968C1F32E
:1034A000062242630C49C968C1F34151491C4A00D4
:1034B000C2630949C968C1F34161491C4A000264F9
:1034C0000549C96801F4003111B11122826301E09C
:1034D00007228263704700000010024000B5FFF72A
:1034E0005DFF05498968C1F30221044A515C01F07E
:1034F0001F01C84000BD000000100240EC19010887
:1035000000B5FFF74BFF05498968C1F3C221044AA2
:10351000515C01F01F01C84000BD000000100240D6
:10352000EC190108F0B500230020DFF8D4C0DCF866
:1035300008C00CF00C01DFF8C8C0DCF80CC00CF0BF
:10354000030719B10C291ED1012F1CD1DFF8B0C01F
:10355000DCF800C00CF0080CBCF1000F06D1DFF85D
:10356000A0C0DCF894C0CCF3032305E0DFF890C0E2
:10357000DCF800C0CCF30313DFF888C05CF823301C
:1035800041B9184606E0042901D11F4802E0082984
:1035900000D11E480C2932D1DFF864C0DCF80CC021
:1035A0000CF00304012C09D0022C02D0032C04D10E
:1035B00001E0154A04E0154A02E000BF1A4600BFC8
:1035C00000BFDFF83CC0DCF80CC0CCF3021C0CF1EF
:1035D0000106DFF82CC0DCF80CC0CCF3062C0CFB89
:1035E00002FCBCFBF6F2DFF818C0DCF80CC0CCF330
:1035F000416C0CF1010C4FEA4C05B2FBF5F0F0BD4B
:1036000000100240F41901080024F40000127A00AE
:103610002DE9F843044614B90120BDE8F883F948C0
:10362000806800F00C07F748C06800F003062078B7
:1036300000F01000102876D11FB10C2F75D1012E8B
:1036400073D1F048006800F0020018B1A06908B911
:103650000120E2E7EB48216A006800F0080020B191
:10366000E848006800F0F00005E0E64894300068A3
:1036700000F47060000981421FD9206A06F0C8FF7B
:1036800008B10120C9E700BFDE48006840F008002B
:10369000DC4908600846006820F0F000216A084311
:1036A000D849086000BF0846406820F47F40E169BF
:1036B00040EA0120D34948601EE000BFD1480068BD
:1036C00040F00800CF4908600846006820F0F0008C
:1036D000216A0843CB49086000BF0846406820F4CF
:1036E0007F40E16940EA0120C6494860206A06F04F
:1036F0008FFF08B1012090E7FFF714FFC1498968E7
:10370000C1F30311C04A515C01F01F01C840BF4919
:103710000860BF480068FFF77CF98046B8F1000FE9
:103720004ED0404679E74BE0FFE7A06980B3B5484B
:10373000006840F00100B3490860FFF749F9054609
:1037400006E0FFF745F9401B022801D9032064E792
:10375000AC48006800F002000028F2D000BFA94881
:10376000006840F00800A74908600846006820F09B
:10377000F000216A0843A349086000BF084640687A
:1037800020F47F40E16940EA01209E49486017E04B
:10379000FFE79C48006820F001009A490860FFF7A5
:1037A00017F9054606E0FFF713F9401B022801D977
:1037B000032032E79348006800F002000028F2D1AD
:1037C000207800F0010000285CD0082F03D00C2FD7
:1037D0000AD1032E08D18B48006800F4003088B36A
:1037E000606878BB012018E700BF6068B0F5803FD3
:1037F00006D18448006840F48030824908601AE0AD
:103800006068B0F5A02F0BD17E48006840F480209E
:103810007C4908600846006840F4803008600AE08F
:103820007848006820F480307649086008460068CF
:1038300020F48020086000BF606890B1FFF7C8F8EE
:10384000054607E01EE0FFF7C3F8401B642801D9D6
:103850000320E2E66B48006800F400300028F2D054
:1038600010E0FFF7B5F8054606E0FFF7B1F8401B9A
:10387000642801D90320D0E66248006800F40030D3
:103880000028F2D1207800F00200022852D1042F43
:1038900003D00C2F14D1022E12D15A48006800F424
:1038A000806018B1E06808B90120B6E65548406864
:1038B00020F0F850217C40EA01605249486039E02C
:1038C000E06800B34F48006840F480704D490860DC
:1038D000FFF77EF8054606E0FFF77AF8401B02285E
:1038E00001D9032099E64748006800F48060002869
:1038F000F2D04448406820F0F850217C40EA016052
:103900004049486016E03F48006820F480703D4917
:103910000860FFF75DF8054606E0FFF759F8401B21
:10392000022801D9032078E63648006800F4806058
:103930000028F2D1207800F00800082836D160690C
:10394000D0B130489430006840F001002D49C1F8F2
:103950009400FFF73DF8054606E0FFF739F8401BF5
:10396000022801D9032058E626489430006800F068
:1039700002000028F1D019E022489430006820F0BD
:1039800001002049C1F89400FFF722F8054606E03F
:10399000FFF71EF8401B022801D903203DE6194815
:1039A0009430006800F002000028F1D1207800F087
:1039B0000400042873D14FF000091248806D00F014
:1039C000805078B900BF0F48806D40F080500D499D
:1039D00088650846806D00F08050009000BF00BFF1
:1039E0004FF001090B48006800F4807008BB0948DB
:1039F000006840F4807007490860FEF7E9FF05465B
:103A000011E0000000100240DC1901087C000020D9
:103A10007400002000700040FEF7DAFF401B02280F
:103A200001D90320F9E59948006800F48070002866
:103A3000F2D000BFA068012808D19548006840F086
:103A4000010093499039C1F8900021E0A068052851
:103A50000FD18F48006840F004008D499039C1F8BB
:103A600090000846D0F8900040F00100C1F89000A6
:103A70000EE08748006820F0010085499039C1F8C0
:103A800090000846D0F8900020F00400C1F89000A3
:103A900000BFA068A0B1FEF79BFF054609E02EE03D
:103AA000FEF796FF401B41F28831884201D903207E
:103AB000B3E57748006800F002000028F0D012E07B
:103AC000FEF786FF054608E0FEF782FF401B41F245
:103AD0008831884201D903209FE56D48006800F0D5
:103AE00002000028F0D1B9F1010F07D168489038E1
:103AF000806D20F0805066499039886500BFA06ACB
:103B000000285BD00C2F78D0A06A022857D16048DB
:103B10009038006820F080705D4990390860FEF7A9
:103B200057FF054606E0FEF753FF401B022801D968
:103B3000032072E556489038006800F000700028B5
:103B4000F1D1D4E90B10401E41EA0011606B41EA4B
:103B50000021A08F0122C2EB500041EA40514020D9
:103B6000005DC2EB500041EA4061A06B000941EAF0
:103B7000404047499039C968464A11400843444982
:103B80009039C8600846006840F0807008600846B8
:103B9000C06840F08070C860FEF71AFF054606E076
:103BA000FEF716FF401B022801D9032035E53848EF
:103BB0009038006800F000700028F1D064E03448CC
:103BC0009038006820F080703149903908600846CC
:103BD000006800F0205020B90846C06820F00300BB
:103BE000C8602B489038C0682B4908402849903954
:103BF000C860FEF7EDFE054607E00EE0FEF7E8FEC2
:103C0000401B022801D9032007E5214890380068AD
:103C100000F000700028F1D136E0A06A012800D140
:103C2000FBE41B489038C66806F00301E06A814255
:103C300028D106F07001206B401EB1EB001F21D18E
:103C400006F4FE41606BB1EB002F1BD106F400318E
:103C5000A06B072801D0012000E00020814211D193
:103C600006F4C001A08F0122C2EB5000B1EB405F0F
:103C700008D106F0C0614020005DC2EB5000B1EBFE
:103C8000406F01D00120C8E40020C6E4007000406D
:103C9000901002408C809DF9FFFFEEFE02461068F6
:103CA00000F1500303EB81031868704708B50368FF
:103CB00050330093009B03EB81030093009B1A6039
:103CC00008BD014600BF91F82000012801D1022063
:103CD0007047012081F8200000BF022081F82100F8
:103CE00000BFCA200A68506253200A68506200BFB1
:103CF0000868806840F020000A68906000BFFF20DC
:103D00000A68506200BF012081F8210000BF002036
:103D100081F8200000BF00BFDAE710B504460BF0C1
:103D20000FFA10BD70B504460D4600BF94F8200090
:103D3000012801D1022070BD012084F8200000BFBD
:103D4000022084F8210000BFCA2021684862532065
:103D50002168486200BFB5F5807F2BD1206880685C
:103D600020F48070216888602068806820F480508A
:103D700021688860FEF72CFE064614E0FEF728FE58
:103D8000801BB0F57A7F0ED900BFFF202168486202
:103D900000BF032084F8210000BF002084F8200029
:103DA00000BF0320C7E72068C06800F001000028BA
:103DB000E4D02BE02068806820F4007021688860DF
:103DC0002068806820F4005021688860FEF700FEBB
:103DD000064614E0FEF7FCFD801BB0F57A7F0ED995
:103DE00000BFFF202168486200BF032084F8210043
:103DF00000BF002084F8200000BF03209BE720685C
:103E0000C068C0F340000028E4D000BF00BFFF201E
:103E10002168486200BF012084F8210000BF002013
:103E200084F8200000BF00BF85E7000070B505469C
:103E30000B461646286840680E4900EA0104200C2B
:103E4000D870C4F30420587004F03F009870C4F395
:103E5000423018705EB9D87806F02CFCD8705878CB
:103E600006F028FC5870987806F024FC9870002022
:103E700070BD00003FFFFF0070B504460B461646BC
:103E80002068806A586020680069C0F30E0098605E
:103E9000206800680E4900EA0105C5F30540187066
:103EA000C5F30620587005F07F009870A80DD870F3
:103EB0005EB9187806F0FEFB1870587806F0FAFB29
:103EC0005870987806F0F6FB9870002070BD0000DE
:103ED0007F7F7F0070B504460125002C4FD094F8F9
:103EE000210028B9002084F82000204600F04CF87A
:103EF000022084F8210000BFCA20216848625320B4
:103F00002168486200BF204606F0ECFB0546002D04
:103F100035D1206880681B49084021688860216984
:103F200060680843A16908432168896808432168DB
:103F300088602168E068086120680169208941EA99
:103F4000004021680861204606F0EEFB0546B5B941
:103F50002068C06C20F003002168C8646169E069D2
:103F600008432168C96C08432168C86400BFFF206A
:103F70002168486200BF15B9012084F82100284655
:103F800070BD0000BFFF8FFF10B5B4B004464421E0
:103F900023A8FCF762F9882101A8FCF75EF9042048
:103FA000239000202D900120259023A8FFF730FBBF
:103FB00008B1FDF7C9FA4FF4003001904012229089
:103FC00001A8FEF7A1FE08B1FDF7BEFA0848006897
:103FD00040F4004006499039C1F890000022114693
:103FE0002920FEF743FD2920FEF730FD34B010BD37
:103FF000901002402DE9F04704460D46904600BF60
:1040000094F82000012802D10220BDE8F0870120A9
:1040100084F8200000BF022084F82100B8F1000FCE
:104020002AD12068806800F0400000B102E0002042
:10403000E87000BFE86900B900E000BF287806F02A
:1040400043FB4FEA0049687806F03EFB49EA002945
:10405000A87806F039FB49EA0009E87849EA80596E
:1040600095F8200006F030FB49EA0060E969084352
:10407000696940EA01061BE02068806800F04000A2
:1040800000B102E00020E87000BF287800046978E1
:1040900040EA0120A9780843E97840EA815095F880
:1040A000201040EA0160E9690843696940EA0106B5
:1040B000A969686840EA010700BFCA202168486210
:1040C00053202168486200BF686AB0F5807F3ED106
:1040D0002068806820F48070216888602068C0684B
:1040E00000F0800060F4C0702168C860FEF770FCCA
:1040F000814615E0FEF76CFCA0EB0900B0F57A7F75
:104100000ED900BFFF202168486200BF032084F859
:10411000210000BF002084F8200000BF032074E7C6
:104120002068C06800F001000028E3D02068C66164
:10413000206847642068806840F480702168886047
:104140002068806840F48050216888603EE02068E4
:10415000806820F40070216888602068C06800F0E2
:10416000800060F420702168C860FEF731FC814651
:1041700015E0FEF72DFCA0EB0900B0F57A7F0ED913
:1041800000BFFF202168486200BF032084F821009F
:1041900000BF002084F8200000BF032035E720681E
:1041A000C068C0F340000028E3D0206806622068A1
:1041B00087642068806840F4007021688860206807
:1041C000806840F400502168886000BF0E48006895
:1041D00040F480200C4908600B480830006840F427
:1041E000802009490831086000BFFF20216848622B
:1041F00000BF012084F8210000BF002084F82000C7
:1042000000BF00BF01E70000000401402DE9F047B6
:1042100005460C46174600BF95F82000012802D13C
:104220000220BDE8F087012085F8200000BF0220B1
:1042300085F821004FB9607800F01000102804D1F3
:10424000607800F0EF000A30607097B9E07806F00F
:104250003BFA4FEA0049607806F036FA49EA00294D
:10426000A07806F031FA49EA0009207849EA403896
:1042700009E0E0780004617840EA0120A178084371
:10428000217840EA413800BFCA202968486253209B
:104290002968486200BF284606F024FA064646B957
:1042A0000C4808EA000029684860284606F03CFAF5
:1042B000064600BFFF202968486200BF16B90120EA
:1042C00085F8210000BF002085F8200000BF30469F
:1042D000A7E700003FFFFF002DE9F04704460D4629
:1042E000904600BF94F82000012802D10220BDE8CA
:1042F000F087012084F8200000BF022084F821000C
:1043000000BFCA202168486253202168486200BF6C
:10431000204606F0E7F90646002E47D1B8F1000F17
:104320001BD12068806800F0400000B102E000204E
:10433000E87000BF287806F0C7F94FEA00496878AE
:1043400006F0C2F949EA0029A87806F0BDF949EA61
:104350000009E87849EA805712E02068806800F098
:10436000400000B102E00020E87000BF287800049F
:10437000697840EA0120A9780843E97840EA815742
:1043800012483840216808602068806820F4802046
:1043900021688860D5E903010843216889680843DA
:1043A00021688860204606F0BFF9064600BFFF205E
:1043B0002168486200BF16B9012084F8210000BFBF
:1043C000002084F8200000BF304690E77F7F7F0008
:1043D00070B504462068C06820F0A0002168C8605D
:1043E000FEF7F6FA054607E0FEF7F2FA401BB0F5D5
:1043F0007A7F01D9032070BD2068C06800F02000DA
:104400000028F1D00020F6E770B504460CB9012071
:1044100070BD606A00B900BF0021A16294F85D0020
:1044200028B9002084F85C00204600F04DF80220F6
:1044300084F85D002068006820F040002168086072
:10444000E068B0F5E06F01D9002501E04FF4805538
:10445000E068B0F5706F05D0E068B0F5E06F01D0AE
:104460000021A162206B40B9E068B0F5E06F02D98D
:104470000221216301E001212163D4E90101084304
:104480002169084361690843218B01F400710843E5
:10449000E1690843216A0843A16A0843216808606A
:1044A0000421A06901EA1040616A0843616B084376
:1044B000E168084328432168486000202066012005
:1044C00084F85D000020A3E770472DE9FF5F0446F4
:1044D000894692461D460E9E0120019000200090C4
:1044E00000BF94F85C00012803D1022004B000F062
:1044F0004AB9012084F85C0000BFFEF769FA07465C
:1045000094F85D00029060680390A846AB4602985C
:1045100001280BD00398B0F5827F04D1A06810B9B0
:104520000298042802D00220009022E1B9F1000F85
:1045300003D0BAF1000F00D015B90120009018E1A6
:1045400094F85D00042802D0052084F85D00002066
:104550002066C4F840A0A4F84650A4F84450C4F81B
:104560003890E587A587E0642065E068B0F5E06FE6
:1045700002D8BBF1010F06D92068406820F48050B2
:104580002168486005E02068406840F48050216858
:1045900048602068006800F04000402805D020688E
:1045A000006840F0400021680860E068B0F5E06F06
:1045B0004ED9606810B1B8F1010F09D1A06B008825
:1045C0002168C860A06B801CA063E08F401EE0875C
:1045D00036E02068806800F00200022810D1E08FE9
:1045E00070B1019801280BD1A06B00882168C860C8
:1045F000A06B801CA063E08F401EE087002001902C
:104600002068806800F0010080B1B4F8460068B10D
:104610002068C068216C0880206C801C2064B4F87D
:104620004600401EA4F8460001200190FEF7D0F994
:10463000C01BB04204D3701C10B10320009098E05E
:10464000E08F0028C5D1B4F846000028C1D185E02C
:10465000606810B1B8F1010F17D1E08F01280AD9B5
:10466000A06B00882168C860A06B801CA063E08FED
:10467000801EE08709E0A06B007821680873A06BBA
:10468000401CA063E08F401EE08760E020688068E7
:1046900000F0020002281ED1E08FE0B1019801284D
:1046A00019D1E08F01280AD9A06B00882168C86061
:1046B000A06B801CA063E08F801EE08709E0A06BE8
:1046C000007821680873A06B401CA063E08F401E37
:1046D000E087002001902068806800F0010058B356
:1046E000B4F8460040B3B4F84600012816D9206853
:1046F000C068216C0880206C801C2064B4F84600DF
:10470000801EA4F84600B4F84600012812D820689C
:10471000406840F48050216848600BE02068007BCE
:10472000216C0870206C401C2064B4F84600401EC8
:10473000A4F8460001200190FEF74AF9C01BB042E0
:1047400001D3701C00B916B90320009011E0E08F6E
:1047500000289BD1B4F84600002897D13A4631464C
:10476000204607F06BFC18B1012000902020206645
:1047700000BF012084F85D0000BF002084F85C00C9
:1047800000BF0098B2E630BCBDE8C09F70477047DC
:104790002DE9F04704462068C5692068066820684E
:1047A000876805F00F08B8F1000F0CD105F0200064
:1047B00048B106F0200030B1206E10B12046216EC5
:1047C0008847BDE8F087B8F1000F71D007F001000D
:1047D00018B906F49070002879D005F0010048B1AE
:1047E00006F4807030B1012021680862E06F40F06B
:1047F0000100E06705F0020048B107F0010030B1A8
:10480000022021680862E06F40F00400E06705F0D4
:10481000040048B107F0010030B1042021680862AB
:10482000E06F40F00200E06705F0080060B106F0BC
:10483000200010B907F0010030B10820216808629B
:10484000E06F40F00800E067E06F80B305F0200003
:1048500038B106F0200020B1206E10B12046216E44
:104860008847D4F87C902068806800F04000402899
:1048700002D009F0080020B320460AF042FF206869
:10488000806800F04000402817D12068806820F040
:10489000400021688860E06E58B12048E16E88636E
:1048A000E06EFDF7F1FD10B1E06E816B88470DE021
:1048B0000DE02046FFF76BFF08E02046FFF767FF9B
:1048C00004E02046FFF763FF0020E06779E705F486
:1048D000801050B107F4800038B14FF48010216887
:1048E00008622046FFF752FF6BE705F0800040B1F9
:1048F00006F0800028B1606E10B12046616E8847D6
:104900005FE705F0400030B106F0400018B12046E6
:104910000AF008FF55E700BF53E700004FF6000814
:1049200010B504460CB9012010BDA06900B100E02B
:1049300000BF606F28B9002084F87000204600F0A6
:1049400029F8242060672068006820F001002168B1
:10495000086020460AF000FF012800D1E4E7606A01
:1049600010B120460AF0C0FD2068406820F4904055
:10497000216848602068806820F02A0021688860EB
:104980002068006840F001002168086020460AF0B5
:1049900027FEC9E710B586B0044651492068884211
:1049A00061D100BF4F48C06C40F001004D49C86460
:1049B0000846C06C00F00100059000BF00BF00BFBA
:1049C0000846C06C40F00100C8640846C06C00F0A6
:1049D0000100059000BF00BF00BF0846806D40F495
:1049E000003088650846806D00F40030059000BFF7
:1049F00000BF00BF0846806C40F001008864084694
:104A0000806C00F00100059000BF00BF0CF0DEFEDE
:104A10003548364908601021344881600021C16062
:104A200080210161002141618161C1610162022037
:104A30002E4948600846FDF7D5FD00BF2B48A0660B
:104A4000846200BF012200211120FEF70FF811201F
:104A5000FDF7FCFF012200212620FEF707F82620A3
:104A6000FDF7F4FF39E022492068884235D114214E
:104A700001A8FBF7F2FB00BF1A48806D40F48020CC
:104A8000184988650846806D00F48020009000BFBA
:104A900000BF00BF0846C06C40F00400C864084670
:104AA000C06C00F00400009000BF00BF30200190F7
:104AB000022002900020039003200490072005901C
:104AC00001A90C48FDF77CFE012200212720FDF7FB
:104AD000CDFF2720FDF7BAFF00BF06B010BD0000D4
:104AE00000440040001002408000024034060020D4
:104AF00000480040000800482DE9F84F04460E46E3
:104B000017469A46A06F20287ED106B117B901201A
:104B100000F084B800BF94F87000012801D1022091
:104B2000F6E7012084F8700000BF0020E067222033
:104B3000A067FDF74DFF8346A4F85870A4F85A709B
:104B400000BFA068B0F5805F0AD1206920B940F2AB
:104B5000FF10A4F85C0020E0FF20A4F85C001CE03B
:104B6000A06848B9206918B9FF20A4F85C0014E0D7
:104B70007F20A4F85C0010E0A068B0F1805F09D14C
:104B8000206918B97F20A4F85C0006E03F20A4F853
:104B90005C0002E00020A4F85C0000BFB4F85C9068
:104BA000A068B0F5805F04D1206910B90025B04637
:104BB00002E035464FF0000820E05B46002220214D
:104BC0002046CDF800A00BF00CF808B103209FE7B9
:104BD00045B92068808C00EA0900A8F8000008F1B7
:104BE000020806E02068808C09F0FF010840287068
:104BF0006D1CB4F85A00401EA4F85A00B4F85A00CC
:104C00000028DAD1202000E006E0A06700BF0020E5
:104C100084F8700000BF7BE7022079E718BCBDE88C
:104C2000E08F2DE9F84F04460E4617469946606F0F
:104C300020285CD106B117B9012000F05AB800BF96
:104C400094F87000012801D10220F6E7012084F8D1
:104C5000700000BF0020E06721206067FDF7B8FE0C
:104C60008246A4F85070A4F85270A068B0F5805F36
:104C700004D1206910B90025B04602E035464FF056
:104C800000081DE05346002280212046CDF8009008
:104C90000AF0A7FF08B10320CFE745B9B8F8000034
:104CA000C0F308002168088508F1020803E02878AD
:104CB000216808856D1CB4F85200401EA4F852000B
:104CC000B4F852000028DDD153460022402120468E
:104CD000CDF800900AF085FF08B10320ADE7202051
:104CE000606700BF002084F8700000BFA5E70220C5
:104CF000A3E718BCBDE8E08F70B504460E46154624
:104D0000606F202849D106B10DB9012070BD00BFE8
:104D100094F87000012801D10220F7E7012084F8FF
:104D2000700000BFE664A4F85050A4F85250002070
:104D3000E06721206067A06EF8B11948A16EC862D3
:104D40001848A16E08631848A16E48630020A16E40
:104D50008863236803F128022B46E16CA06EFDF7FF
:104D6000C7FC50B11020E06700BF002084F870003D
:104D700000BF202060670120C8E74020216808624A
:104D800000BF002084F8700000BF2068806840F0F9
:104D90008000216888600020B8E70220B6E70000A4
:104DA000BDF60008F5F6000867F6000810B50446E1
:104DB00001480068804710BD68000020704700006F
:104DC00010B50020024908700248FDF737F810BD01
:104DD0006C0000207C06002008B5194800780028E7
:104DE0002DD1012016490870164817490860002186
:104DF000154880F838104FF480301349486000217E
:104E00001148017681600161C160417680F820100F
:104E1000C16204214161002180F8301000BF0B48BD
:104E2000C06C40F400500949C8640846C06C00F4E6
:104E30000050009000BF00BF0348FDF7EBF808BD2D
:104E40006C000020000004507C060020001002408E
:104E500030B587B00446182101A8FBF7FEF90025FC
:104E6000FFF7BAFF1A48007801282ED100BF194871
:104E7000C06C40F400501749C8640846C06C00F488
:104E80000050009000BF00BF7F211348FCF70AFDCF
:104E90000420039001940620029001A90E48FCF71B
:104EA00057FD0D48FDF762FA691E0B48FDF7C6F97C
:104EB0000948FDF7ABF885B20748FBF7D1FD054877
:104EC000C06C20F400500349C864284607B030BDC8
:104ED0006C000020001002407C06002001460020EB
:104EE00001F47F420AB140F008004FF2F0020A409C
:104EF0000AB140F004004CF6CC420A400AB140F03E
:104F000002004AF6AA220A400AB140F001007047A6
:104F1000F8B505460E46144600BF3449681A8D425E
:104F20002CD006DCB5F1904F0AD031482844A0BB04
:104F300015E0B0F5806F31D0B0F5A05F3DD13DE018
:104F400000BF2C48C06C40F001002A49C8640846E4
:104F5000C06C00F00100009000BF00BF3DE000BF4A
:104F60002448C06C40F002002249C8640846C06C66
:104F700000F00200009000BF00BF2EE000BF1D48FF
:104F8000C06C40F004001B49C8640846C06C00F0C7
:104F90000400009000BF00BF1FE00EE000BF1548F6
:104FA000C06C40F008001349C8640846C06C00F0AB
:104FB0000800009000BF00BF0FE000BF00BF0D4819
:104FC000C06C40F080000B49C8640846C06C00F01B
:104FD0008000009000BF00BF00BF00BF00BF266080
:104FE00021462846FDF7ECFBF8BD0000000800480C
:104FF00000FCFFB70010024070B505462846FFF7D9
:105000006DFF0446044850F8240020B1024850F8CF
:1050100024100020884770BDA80400202DE9F04727
:1050200081460D4616461C462846FFF757FF0746A1
:105030007CB10B4840F82740284603F0F5FC804639
:10504000002231464046FDF711FD4046FDF7FEFCCB
:1050500003E00020024941F82700BDE8F087000086
:10506000A804002070B505460E461446E2B231464B
:105070002846FDF7A7FC70BD70B500250748FFF76F
:10508000E7FE05460DB9002406E00548008840F615
:10509000B8314843B0FBF5F4A0B270BD0100008008
:1050A000AA75FF1F054800680449091D09684840A2
:1050B0000249083109684840704700009075FF1F99
:1050C00070B500241648FFF7C3FE04460CB900254E
:1050D00006E01448008840F6B8314843B0FBF4F5C8
:1050E0001148FFF7B5FE044604FB05F040F6B83161
:1050F000B0FBF1F00B49891E0988401A00EB8000D3
:105100000003084920310988064A921E1288891A2C
:1051100090FBF1F000F5F05086B2304670BD000013
:1051200001000080AA75FF1F000052C719490968D5
:10513000184A083212681144090EC17115490968EC
:10514000144A083212681144090C81711149098806
:10515000104A083212881144090A41710D49097830
:105160000C4A08321278114401710A49091D096874
:10517000090EC1700749091D0968090C81700549AC
:10518000091D0988090A41700249091D0978017041
:10519000704700009075FF1F00B587B0142102A86A
:1051A000FBF75BF800BF4A48C06C40F0010048497B
:1051B000C8640846C06C00F00100019000BF00BF49
:1051C00000BF0846C06C40F00200C8640846C06CCE
:1051D00000F00200019000BF00BF00BF0846C06C95
:1051E00040F00400C8640846C06C00F00400019060
:1051F00000BF00BF00BF0846C06C40F00800C86494
:105200000846C06C00F00800019000BF00BF00BF5E
:105210000846C06C40F01000C8640846C06C00F03E
:105220001000019000BF00BF00BF0846C06C40F0F6
:105230002000C8640846C06C00F02000019000BF48
:1052400000BF00BF0846C06C40F04000C86408467C
:10525000C06C00F04000019000BF00BF00BF0846D6
:10526000C06C40F08000C8640846C06C00F080004C
:10527000019000BF00BF032003900020049049F676
:10528000FF70029002A94FF09040FDF799FA4FF697
:10529000FF70029002A90F48FDF792FA02A90E488A
:1052A000FDF78EFA02A90D48FDF78AFA02A90C480B
:1052B000FDF786FA02A90B48FDF782FA02A90A480F
:1052C000FDF77EFA02A90948FDF77AFA07B000BD9A
:1052D000001002400004004800080048000C00488C
:1052E000001000480014004800180048001C004846
:1052F00010B50A48007878B9FFF76EFD08490868CC
:10530000804700F0B3FA00F003F90AF049F8FBF720
:10531000F9FD01200149087010BD00006D0000205A
:10532000241A010810B500F0DFFA034948688047E5
:105330000CF022FA10BD0000241A010810B500F08C
:1053400015FB0349086880470CF040FA10BD0000C7
:10535000241A010870B504460D4600210448FEF7E2
:105360009DFC206001210248FEF798FC286070BD7A
:10537000E804002070B504460D462246002104488A
:10538000FEF794FC2A4601210148FEF78FFC70BD10
:10539000E804002070B5044600250026204600F0F1
:1053A00049FA054600F0AAF8064600E000BF00F002
:1053B000A5F8801BA842F9D370BD2DE9F04186B055
:1053C000064601A9684600F00FF804460D46A00AFB
:1053D00040EA8558C4F30907384600F01DFA3080CA
:1053E000404606B0BDE8F0812DE9F04704460E4680
:1053F00000BF002231463148FEF73EFD00BF00BF2E
:105400002F48806A1FFA80F900BF002221462B48EE
:10541000FEF70CFD002231462848FEF72DFD00BFA7
:105420002748806A80B24845E9D1E07840F2B5511A
:1054300010FB01F0C01C8508E078C11700EB9171EA
:105440008910A0EB810109B91E4900E01E498A4676
:105450006178491E01EB4102C2EB8111481C00EB4F
:10546000D0714A106178491E49002AFA01F101F011
:105470000301511A0D44A078401E054413484543CA
:10548000B0787178C1EB011100EB81003178C1EB8C
:105490004112C2EB012100EB011005440020800203
:1054A00040EA9550AB0240F2FF327168511A5F1822
:1054B00040F1000841463846BDE8F087E804002086
:1054C0000028004050554400A0AA990080510100D6
:1054D0000320704701480068704700003405002031
:1054E00010B586B001A96846FFF77EFF0446024862
:1054F0000068201A06B010BD3405002010B586B033
:1055000001A96846FFF770FF0446204606B010BDAB
:1055100010B50648007840B900F05AF800F04EF88F
:1055200000F092F801200149087010BD62000020CF
:1055300010B50F4C0021042000F03AFF4FF48020FA
:105540000C49086020688068C0F3003078B120689A
:10555000C068C0F3002050B12068C06800F080002F
:1055600060F4C0702168C8602046FEF7D6FB10BD0D
:10557000E80400201404014010B50446FFF7B0FF12
:10558000211A0D48B0F90000C01C814204D9002145
:10559000042000F00DFF03E00121042000F008FFCB
:1055A00000F0CCFE012803D10348B0F90000241A12
:1055B000204600F057F810BD6400002010B54FF4ED
:1055C00080710248FEF7AEFB10BD0000E804002029
:1055D00000B587B01A481B490860002048601F21A9
:1055E0001848816040F2FF31C16000210161816192
:1055F000C161FEF76FFC00208DF8070001208DF8D7
:1056000005008DF806008DF80400002201A90D4860
:10561000FEF7FCFD00208DF808008DF809008DF8DC
:105620000A008DF80B00039006900590002202A955
:105630000448FEF751FE0348FEF743FB07B000BDE8
:1056400000280040E804002010B5054901F11400CD
:10565000FFF7CAFE0249091F08600846006810BD2E
:10566000380500202DE9F04387B004464FF00008CC
:10567000C1460026002700251422544902A8FAF743
:10568000D3FD5248001F8069019000F0ABF840F252
:10569000FF310398081A1FFA80F8C4F30900404448
:1056A0001FFA80F8A40A9DF8065003E04848241A1F
:1056B000681C85B246488442F8D29DF8087003E021
:1056C000A4F56164781C87B2B4F5616FF8D29DF8D7
:1056D000096002E03C3C701C86B23C2CFAD29DF87A
:1056E0000A0020441FFA80F907E0A8F580601FFA3D
:1056F00080F809F101001FFA80F9B8F5806FF4DA3B
:1057000005E0A9F13C001FFA80F9701C86B2B9F1DE
:105710003C0FF6D204E0A6F13C0086B2781C87B2BA
:105720003C2EF8D204E0A7F1180087B2681C85B2BD
:10573000182FF8D29DF80700C11700EB917189105E
:10574000A0EB810181B99DF80500401E2149085C4C
:10575000A84219DA9DF80500401E085C95FBF0F19F
:1057600000FB115085B20FE09DF80500401E1A495C
:10577000085CA84208DA9DF80500401E085C95FB0D
:10578000F0F100FB115085B240F2FF30A0EB0800B1
:10579000124948604FF02060886181F802904E7095
:1057A0000F7081F820509DF80B00C8700020C86170
:1057B00048614FF4807048620020C8600861002290
:1057C0000748FEF717FC07B0BDE8F0833805002056
:1057D00080510100D0190108C41901080C050020EE
:1057E000E804002010B54FF480710948FEF79AFADA
:1057F00007480068C06800F0800060F4C070044989
:105800000968C8604FF480200249086010BD00009C
:10581000E80400201404014001468A0AC1F309018A
:105820004FF47A7050434FF47A7311FB03F300EB9B
:105830009320704770B504468020A4FB00500146B9
:105840007D2200232846FAF7BBFC70BD01B582B06B
:105850004FF0FF30012301AA02A900900248FEF791
:1058600034FEBDF804000EBD5005002008B51A48EE
:105870001A4908601A4809F0CDF91849C861002191
:10588000164881604FF48270144948600021134823
:10589000016141614FF4E061C160002181620162F8
:1058A0004FF4007181610021416200BF0D48006E1C
:1058B00040F480500B4908660846006E00F48050A2
:1058C000009000BF00BF0548FEF79EFD08B1FBF742
:1058D0003BFE00F04BF808BD0030014050050020B1
:1058E000809698000010024000B585B014216846EB
:1058F000FAF7B3FC01200190002002906A46802153
:105900004FF09040FFF704FB002280214FF09040C1
:10591000FFF7A8FB022002906A4640214FF090401A
:10592000FFF7F6FA002240214FF09040FFF79AFB74
:10593000002002906A4620214FF09040FFF7E8FADD
:10594000002220214FF09040FFF78CFB00200290B6
:105950006A4640210448FFF7DBFA01224021024851
:10596000FFF780FB05B000BD0004004800B585B01E
:1059700014216846FAF771FC022001900020029081
:1059800003200390052004906A4620214FF09040A8
:10599000FFF7BEFA6A4640214FF09040FFF7B8FA91
:1059A0006A4680214FF09040FFF7B2FA0120019043
:1059B000002002906A4640210448FFF7A9FA01221C
:1059C00040210248FFF74EFB05B000BD000400482F
:1059D00070B505460C4600262E48D0F8840490F891
:1059E000F000022802D02C49486B804700F0AEFD41
:1059F00030B1022000F0C6FD002000F09CFD012621
:105A00002448D0F8840490F8F000012813D100F065
:105A1000A3FD30B1002000F0B8FD002000F0A9FD8A
:105A2000012600F097FD30B1002000F0ACFD002011
:105A300000F09AFD012656BB164890F8800458B92C
:105A4000144890F81404012802D1124880F83D54FB
:105A5000284600F097FF1AE00E4890F81404012839
:105A600002D10C4880F83D44204600F08BFF0948E5
:105A7000D0F8840490F8F000022808D0054890F887
:105A8000810420F020002030024981F881040AF0CE
:105A900019F970BD34080020241A010800E000BF85
:105AA000FDE70000044909691031814202D1024931
:105AB000086900E0001D7047F40F0020074890F8C7
:105AC0008104C0F3800028B9044890F8810400F0F4
:105AD000010008B1012070470020FCE734080020D5
