:020000040800F2
:10000000402000209D0100082D8D00081559000892
:10001000D18C0008D5100008A5E2000800000000FF
:10002000000000000000000000000000FFB5000814
:10003000C3130008000000005191000859D80008BF
:10004000B7010008B7010008B7010008B7010008B0
:10005000B7010008B701000881140008BD140008AA
:10006000C3140008C9140008CF140008B701000821
:10007000B7010008B7010008B7010008B701000880
:10008000B701000891130008B7010008B701000884
:10009000B7010008B7010008B7010008D51400082F
:1000A000B7010008B7010008B7010008B701000850
:1000B000B7010008B7010008B7010008B701000840
:1000C000B7010008B7010008B7010008B701000830
:1000D000B7010008B701000849E20008B7010008AD
:1000E0008714000835A10008B7010008B70100080F
:1000F000B7010008B7010008B7010008B701000800
:10010000B7010008B7010008B7010008B7010008EF
:10011000B7010008B7010008B7010008B7010008DF
:10012000B7010008B7010008B7010008B7010008CF
:10013000B7010008B7010008B7010008B7010008BF
:10014000B7010008B7010008B7010008B7010008AF
:10015000B7010008B7010008B7010008B70100089F
:10016000B7010008B7010008B7010008B70100088F
:10017000B7010008B7010008B7010008000000003F
:10018000B7010008B7010008DFF80CD000F09CFBB5
:10019000004800474DF600084020002006488047F0
:1001A00006480047FEE7FEE7FEE7FEE7FEE7FEE75C
:1001B000FEE7FEE7FEE7FEE791D9000889010008A7
:1001C0002DE9F05F0546002092469B46884606468C
:1001D000814640241BE0284641464746224600F01F
:1001E00080FA53465A46C01A914110D31146184618
:1001F000224600F067FA2D1A67EB01084F462246A7
:100200000120002100F05EFA17EB00094E41201E8C
:10021000A4F10104DFDC484631462A46434600F09B
:1002200000B830BCBDE8C09F40EA01039B0703D083
:1002300009E008C9121F08C0042AFAD203E011F825
:10024000013B00F8013B521EF9D27047D2B201E0E7
:1002500000F8012B491EFBD270470022F6E710B5CB
:1002600013460A4604461946FFF7F0FF204610BD24
:100270002DE9FE4F804681EA0300C00F0C46009036
:1002800021F0004123F00045B8EB0200A94105D25E
:100290004046214690461C460B46024623F000404D
:1002A000104347D0270DC7F30A00C3F30A51029049
:1002B000401A019040286BDAC3F3130040F4801B0E
:1002C0000098924620B10023D2EB030A63EB0B0B9C
:1002D00001985946C0F14002504600F0F3F9064635
:1002E0000D4650465946019A00F00BFA10EB0800F3
:1002F0006141002487EA115284EAE7731A4340D02F
:10030000009A62B3019A012A4FEA075215DC001BDA
:1003100061EB02014FF0004202EA0752CDE90042D0
:10032000001C41F5801132462B4600F00BFA03B059
:1003300000F045B840462146F9E7001B61EB020199
:10034000001C41F5801300185B412018A2F500172E
:1003500047EB030140EAD570B6196D4111E06D0815
:100360004FEA360645EAC0754FEA0752001B61EBBB
:100370000201001C41F5801149084FEA30000019C4
:10038000514132462B4603B000F01CB800F0CBB907
:100390000098012240000023D0EB020263EBE073DF
:1003A000009821464FEAE074B8EB000061EB0401CD
:1003B000E9E783F000435BE781F0004158E730BC98
:1003C000BDE8C08F30BCBDE8C04FFFF7DFBF2DE9EF
:1003D000FE4F81EA030404F0004421F00041009440
:1003E0004FF0000B23F0004350EA01045ED052EAC4
:1003F00003045BD0C3F30A54C1F30A552C44A4F29E
:10040000F3340194A0FB0254C1F3130141F48011B1
:10041000C3F3130343F4801301FB024400FB034EB8
:10042000840A970A44EA815447EA8357A4FB076881
:1004300002958D0A05FB07854FEA932C04FB0C54AB
:100440002705029D4FEA065847EA1637B5EB08051F
:100450006EEB070C870E920E47EA811742EA831271
:10046000A7FB0201B6EB0B0164EB00042B0D43EA82
:100470000C335E1844EB1C50DA465146E7FB020190
:10048000C5F313044FEA0B3343EA14534FEA043223
:10049000019C43EA0603A4F10C040294009CCDE9FC
:1004A00000B400F04FF903B000F003B8002001469B
:1004B000F9E730BCBDE8C08F2DE9F04D81EA0304B7
:1004C00004F0004B21F0004514464FF0000A23F0E1
:1004D000004150EA050220D054EA01021DD0C5F3C4
:1004E0000A570246C5F31303C1F31300C1F30A56BA
:1004F00040F4801543F48013A7EB0608101BD64682
:1005000008F2FD3873EB050002D308F1010801E0A1
:1005100092185B41B8F1000F03DA00200146BDE8F4
:10052000F08D00204FF48011064684460EE0171B24
:1005300073EB050705D3121B63EB050306434CEA77
:10054000010C49084FEA300092185B4150EA01075C
:10055000EDD152EA030012D082EA040083EA0501D9
:10056000084305D0101BAB4106D20122002306E050
:1005700000224FF0004302E06FF0010253101AEB2B
:1005800006004CEB085110EB0A0041EB0B01BDE8F3
:10059000F04D00F0C8B80EB5C10F80EAE070084415
:1005A000CA07002140F233438DE80E000A460B468D
:1005B00000F0C8F803B000BD0EB540F2334102911F
:1005C0000021CDE900110A460B4600F0BBF803B04C
:1005D00000BD70B5C1F30A5201F000450024C1F31B
:1005E000130140F2FF3341F480119A4201DA0020F6
:1005F00070BD40F233439A42A2F2334203DC5242CE
:1006000000F06FF800E090402C43F1D0404270BD04
:10061000C1F30A5210B5C1F3130140F2FF3341F4A4
:1006200080119A4201DA002010BD40F233439A4211
:10063000A2F2334203DC524200F053F810BD904066
:1006400010BD00F0004230F000400AD0C10D01F5AD
:100650006071C0F3160042EA0151C208400711431D
:10066000704700200146704730B5041E71F1000448
:1006700004DB4FF00044404264EB0101141E73F1AF
:10068000000405DB1C464FF00043524263EB0403B9
:10069000994208BF904230BD30B50B46014600205C
:1006A0002022012409E021FA02F59D4205D303FA34
:1006B00002F5491B04FA02F52844151EA2F10102B5
:1006C000F1DC30BD202A04DB203A00FA02F10020E0
:1006D00070479140C2F1200320FA03F31943904080
:1006E0007047202A04DB203A21FA02F000217047EB
:1006F00021FA02F3D040C2F120029140084319468A
:100700007047202A06DBCB17203A41FA02F043EA71
:10071000E07306E041FA02F3D040C2F120029140BA
:1007200008431946704710B5141E73F1000408DA27
:10073000401C41F1000192185B411A4301D120F0A5
:10074000010010BD2DE9F04D92469B4611B1B1FA62
:1007500081F202E0B0FA80F220329046FFF7B2FF59
:1007600004460F4640EA0A0041EA0B0153465A4646
:10077000084313D0114653EA010019D0C8F14002D2
:100780005046FFF7AEFF05460E46504659464246D4
:10079000FFF798FF084305D0012004E020463946C2
:1007A000BDE8F08D0020054346EAE0762C43374350
:1007B0000A986305E40AA0EB08000022FD0A44EA57
:1007C00047540A3002D500200146E9E70105101917
:1007D0006941DDE9084500196941BDE8F04DA2E72E
:1007E0002DE9F041054621F000400C46284309D090
:1007F000C4F30A5040F23341884205DD28462146C1
:10080000BDE8F0812846FBE740F2FE31884210DC6B
:100810000CDB4FEA043040EA155050EA053105D0B0
:10082000104804F0004101430020E9E700200146A0
:10083000E6E7A0F233404642C6F140022846214690
:10084000FFF740FF07468846284621463246FFF715
:1008500048FF43463A46FFF766FF3246BDE8F0419F
:10086000FFF730BF0000F03FC1F30A52C1F313019C
:1008700040F2FF3341F480119A4202DA002001462F
:10088000704740F233439A42A2F2334202DC5242B2
:10089000FFF727BFFFF716BF30B5041E71F1000444
:1008A00004DB4FF00044404264EB0101141E73F17D
:1008B000000405DB1C464FF00043524263EB040387
:1008C0008B4208BF824230BD064C074D06E0E0680F
:1008D00040F0010394E8070098471034AC42F6D387
:1008E000FFF756FCDC020108FC02010870B58C1809
:1008F00010F8015B15F0070301D110F8013B2A1134
:1009000006D110F8012B03E010F8016B01F8016B20
:100910005B1EF9D12B0705D40023521E0DD401F81C
:10092000013BFAE710F8013BCB1A921C03E013F8E5
:10093000015B01F8015B521EF9D5A142D8D300201A
:1009400070BD00002DE9F041044600270D46006807
:1009500005F0B6F90646206805F0AEF9304359D0E7
:100960002068C1682C4E890105D5617E012902D11C
:10097000217E01290BD0022D1DD0206805F0A0F9A1
:10098000B8B120688168C1F3400169B111E0012567
:10099000224902E08F422ED27F1C0268D2435206C7
:1009A000F8D440210160E8E78168314041F010014E
:1009B0008160012D11D0206805F07EF948B12068D2
:1009C0008168C1F3400121B98168314041F02001C3
:1009D0008160022D08D0032D04D0042501F09AFE79
:1009E000064613E00C25F9E70825F7E701F092FE2B
:1009F000801B05280AD9606D40F010006065A06D6D
:100A000040F00100A0650120BDE8F0812068806809
:100A10002842EBD10020F7E7C0FFFF7F000040A392
:100A200070B50446006881688268C1F3400112F025
:100A3000010F24D019BB816801F00D01012910D1EB
:100A40008168104A1140891C816021680320086078
:100A500001F060FE05460EE001F05CFE401B02283E
:100A600009D9606D40F010006065A06D40F0010094
:100A7000A065012070BD20688068C007ECD100200F
:100A800070BD0000C0FFFF7F70B50446006881683C
:100A900011F0010F28D18168144A114215D18168E3
:100AA000D5432940491C816001F034FE064616E01A
:100AB000816811F0010F03D181682940491C8160D0
:100AC00001F028FE801B022809D9606D40F010005B
:100AD0006065A06D40F00100A065012070BD206838
:100AE0000168C943C907E3D1002070BD3F00008001
:100AF00070B588B00C4605461022002168460EF0FD
:100B000033FE6946224608460EF08AFA9DF8000038
:100B1000694600064FF000000FD50B180A5C5B78A1
:100B2000520042EAD3120A54401C0F28F5DB9DF80C
:100B30000F00400080F087000CE00B180A5C5B7827
:100B4000520042EAD3120A54401C0F28F5DB9DF8EC
:100B50000F0040008DF80F00D4F81401102814D0B5
:100B60009DF8000000061CD500200B180A5C5B787D
:100B7000520042EAD3120A54401C0F28F5DB9DF8BC
:100B80000F00400080F0870019E0002022180E5C62
:100B900092F80131401C734082F801311028F5DBD6
:100BA0002AE000228B18885C5B78400040EAD31072
:100BB0008854521C0F2AF5DB9DF80F0040008DF879
:100BC0000F00D4F8146104F201128023B3540023FF
:100BD00000E08354D4F81401401CC4F81401102818
:100BE000F7D3002022180E5C92F80131401C7340AC
:100BF00082F801311028F5DB00202118401C11F883
:100C0000F12F0B7C5A400A701028F6DB102204F1F9
:100C1000F10104A80EF092FD2246294604A80EF028
:100C2000FFF91022002168460EF09EFD08B070BD4D
:100C300010B5044610220021F1300EF095FD002081
:100C40000146C4F814012046BDE81040F0220EF021
:100C50008BBD0B460246102118460EF009BA2DE94D
:100C6000FF470446D0F814010F46154604F2011858
:100C700004F1F10918B3C0F11006AE4200D31646D4
:100C8000B2B2404439460EF059FDD4F81401304454
:100C9000C4F81401102837D3B54235D000202118EC
:100CA000401C11F8F12F0B7C5A400A701028F6DB1B
:100CB0004946224608460EF0B3F93744AD1B1AE008
:100CC000002021183B5C11F8F12F401C5A400A709B
:100CD0001028F6DB1022494668460EF02FFD6946C3
:100CE000224608460EF09CF91022694648460EF04E
:100CF00025FD103D1037102DE2D8AAB239464046E6
:100D00000EF01CFDC4F8145100F000B80FBCBDE893
:100D1000F087000038B5114C94F8120494F81114BF
:100D2000884219D2401C84F81204C00714D0222033
:100D30008DF80000D4F8840490F82C118DF802107E
:100D400090F8F9108DF80110007869460AF0F4F96E
:100D5000D4F8841481F8F90038BD0000800C00201C
:100D600070B5184C0646E078012821D00CF03EFC06
:100D700001281DD0BC202070BE2060700025A57009
:100D8000E5702571012060710F4804F108030F49D7
:100D900083E82300011F0E4A0A60C0E90015346091
:100DA000E1682046096821B18847012807D0002062
:100DB00070BD1421FFF751FA0120356070BD306815
:100DC000F7E70000D0040020880100200000002088
:100DD0006800002070B5184C0646E078012822D043
:100DE0000CF004FC01281ED0BC202070BE206070D6
:100DF0000025A570E57025710120607104F10803DC
:100E000004F128000D4983E823000E490C4A0A60CA
:100E1000C0E900153460E1682046096821B18847BF
:100E2000012807D0002070BD1421FFF716FA012019
:100E3000356070BD3068F7E7E4040020340000201E
:100E4000680000209001002010B540B1C26831B1A7
:100E5000926922B19047012800D0002010BD0120E6
:100E600010BD10B5002208460A60FFF779FF01287F
:100E700000D0002010BD10B538B1C168896821B11B
:100E80008847012800D0002010BD012010BD0000BF
:100E900070B5194C0546E078012823D00CF0A6FB6C
:100EA00001281FD0B1202070BA2060700026A670E3
:100EB000E67026710120607111491048C4E90201F1
:100EC00010492161011F104A0A60C0E900162C6018
:100ED000E1682046096831B18847012809D005F04A
:100EE0005BFD002070BD1421FFF7B7F901202E60D3
:100EF00070BD2868F7E70000BC0400207C010020DA
:100F00006C000020D40000204C01002070B51B4C68
:100F10000646E07D012827D00CF068FB012823D08D
:100F2000B1202075BA2060750120A0750025E575F7
:100F30002576607604F13000E061114820621148A6
:100F4000606212481049016004F12801C1E90205FC
:100F5000A1F114003060C168096831B188470128E7
:100F600009D005F019FD002070BD1421FFF775F9B7
:100F70000120356070BD3068F7E70000E404002010
:100F8000A0000020100100204C010020940100204E
:100F900010B540B1C26831B1926922B190470128C1
:100FA00000D0002010BD012010BD10B50022084661
:100FB0000A60FFF76DFF012800D0002010BD10B5BA
:100FC00038B1C168896821B18847012800D0002064
:100FD00010BD012010BD10B540B1C26831B1926999
:100FE00022B19047012800D0002010BD012010BD83
:100FF00010B50C460021216050B1012804D02046D4
:10100000FFF7E8FE012808D12046FFF77FFF02E046
:101010002046FFF7DFFE012800D0002010BD10B5EC
:1010200038B1C168896821B18847012800D0002003
:1010300010BD012010BD000010B50D490020FFF7C4
:1010400010FF0B490020091DFFF7D2FF08494FF0A0
:10105000FF300831FFF7A9FF054C2068FFF70BFFB1
:101060006068FFF7DCFFA068BDE81040FFF7A7BF8E
:10107000C40100203EB59FED130A134D8DED000A0B
:101080008DED010A04468DED020A69462868FFF7D6
:10109000DBFE01A96868FFF79EFF02A9A868FFF7B9
:1010A00077FF9DED000A094884ED020A9DED010AD3
:1010B00084ED010A9DED020A84ED000AE060044817
:1010C00020613EBD00000000C40100200D093E006B
:1010D000AB030500FEE72DE9FE4F8A4690F910505C
:1010E00090F911808168044619604079002799467B
:1010F0009346012846D102208DF80000A07C8DF88F
:101100000200E07C69460AF017F846B2B54200DCFE
:101110003546B54203D10021C9F8001032E0A0895C
:10112000A168814200D30127E2891044884229D86E
:1011300008208DF80000E07C694609F0FDFF4FFAB9
:1011400080F8E189A068B0FBF1F201FB12000128F0
:1011500018D122208DF800008DF80150A07C8DF868
:101160000200E07C694609F0E7FF45B2B54209D1CB
:1011700020790027012805D18DF80800E07C01A91D
:1011800009F0E1FF8AF800508BF80080384600F043
:1011900000B81EBCBDE8E08FFEB51C4C0025012642
:1011A000D4F8841491F8D4216AB38DF8006000BF9C
:1011B00091F83D218DF802208DF80300D1F8CC0183
:1011C0000CF00FFC0190D4F8180402908DF8015037
:1011D00094F88104400705D5002006F083F808B193
:1011E0008DF80160D4F88404694604F583640078BE
:1011F00009F026FDE16E2068B1F8C2214243101AC1
:10120000C1F8C801FEBD8DF80050D1E7800C002068
:101210000449D1F84813002903D08968002900D077
:1012200008477047800C00202DE9F04387B01C462A
:101230000E9E90460F0005460BD056B115488146CC
:10124000FFF7F6FC06A9204600F026FA040004D0B9
:101250001EE0022007B0BDE8F08306994846491C0D
:10126000FFF7F7FC25B1102229464846FFF7F7FCA7
:10127000424639464846FFF7F2FC49466846FFF7C2
:1012800037FC9DF80000DDF8011040EA01203060D5
:101290002046DFE78C1700202DE9FF4F002083B0A8
:1012A0009A4690468146054607460126009000244E
:1012B00038F8171006FA04F001422BD005EB040BA6
:1012C0000BEB4B015AF8212022B3039A0AB980078D
:1012D00020D00AEB8100019090F90800021140F340
:1012E0000301049840B209F004FF98B10198417AD3
:1012F000109800EB0110C06820B109F1010000F066
:10130000FF0907E0009A119901F802B00098401C0B
:10131000C0B20090641CE4B2102CC9D310357F1CFD
:10132000EDB2FFB2102DC2D3129981F8009000984F
:1013300007B000F000B830BCBDE8C08F10B586B073
:1013400014216846FEF789FF0320019000200290D7
:101350000E4C4FF4C0400090E06C40F00100E0649F
:10136000E06C694600F0010005904FF0904001F0FC
:10137000E7F8E06C20F00100E06400F0E5FE00F02A
:10138000F3FE00F0E9FE06B010BD000000100240C0
:101390000EF066BB30B590F8444004F01C05012403
:1013A000AC40056C6C60046863608368102B036854
:1013B00003D099600068C26030BD9A600068C16067
:1013C00030BD70472DE9FF411E461746054691B1D5
:1013D0008FB186B100200090019002900390052DFE
:1013E0000BD0062D09D0072D07D0082D07D00B20D4
:1013F00004B0BDE8F0810A20FAE7012000E00220F5
:101400008DF800006C460322601C0EF097F9032251
:101410003946201D0EF092F902223146E01D0EF0F1
:101420008DF906482B4602224068694600680BF099
:1014300099FD0028DCD00F20DAE700002C130020F3
:1014400040B139B1027B130706D090F820301BB1B0
:1014500000200EE00320704790F828301BB11207DF
:1014600003D017207047012003E090F8200018B146
:1014700003200870002070470220FAE77047704789
:10148000012001F051B810B54FF4806001F04CF824
:101490004FF4006001F048F84FF4805001F044F838
:1014A0004FF4005001F040F84FF4804001F03CF858
:1014B000BDE810404FF4004001F036B8022001F0C2
:1014C00033B8042001F030B8082001F02DB8102006
:1014D00001F02AB810B5202001F026F8402001F0D4
:1014E00023F8802001F020F84FF4807001F01CF800
:1014F000BDE810404FF4007001F016B801A00CF0E8
:1015000079FBFEE74572726F725F48616E646C65CD
:10151000720A0D000520FFF77BBE0420FFF778BE9E
:101520000620FFF775BE0220FFF772BE0320FFF70B
:101530006FBE0000094951F8200000F57760B0F552
:10154000783006D000F57760B0F5783F03D0002002
:1015500070470120704702207047000050FE0008CD
:1015600038B5174800F5EE7420604FF4EE706060F7
:1015700004F1140005F09EFF206100200090A4F209
:1015800064606946D0F88404007809F0CFFDA0605B
:101590000098E06004F11C000BF010FDA06104F164
:1015A000240005F053FD206204F12C0005F0E0FC5E
:1015B000A06204F1340005F03FFE2063204638BDF0
:1015C0000811002070B505461446084604E001786D
:1015D000A94204D004F054FBA042F8D1002070BD11
:1015E000F0B4DDE90545049E42B13CB135B10528B2
:1015F00023D2DFE800F01315171906000A20F0BC0B
:101600007047C3F30740012801D003200DE019B152
:10161000032901D0012008E0022006E0042004E0B4
:10162000052002E0062000E007202070D2892B462A
:101630003146F0BCC0B205F0F9BE0520DFE700007E
:10164000094A002152F83130834208D802EBC10325
:101650009B68834203D902EBC10000797047491CA3
:10166000C9B21529EED3FEE780FC000810B5094B7E
:10167000002200BF13F82240844204D103EB820011
:101680000860002010BD521CD2B2052AF2D30C20F3
:1016900010BD00008C02002010B50C4B002200BFD2
:1016A00002EB02141C4494F82C42844207D102EB52
:1016B0000210184400F50B700860002010BD521C89
:1016C000D2B2182AECD3032010BD000078160020F7
:1016D00049B1144A0828526821D2DFE800F02006F8
:1016E0000B1116181C1E0A2070471069086002F1C1
:1016F000100003E05069086002F11400106308E074
:101700009069086002F11800F8E7D06900E0106AFB
:10171000086000207047506AFAE7906AF8E70520F1
:10172000704700002C1300200C4908B5D1F8841430
:1017300091F82C218DF802208DF801000D208DF8F4
:10174000000091F83F01012802D10E208DF8000021
:101750000878694609F0F0FCC0B208BD800C002092
:10176000884201D1C8B201E0401EC0B240B2704709
:10177000F8B500260446009690F850000D46012862
:101780000BD0012084F850002046FFF749F90100F2
:10179000606D04D040F010002BE00220F8BD20F472
:1017A000885040F00200606520688268134B1A4040
:1017B00005F080431A4342F0004282604FF49123C7
:1017C00020680EE0009A521C00929A4209D3606D84
:1017D00020F0020040F01000606584F850600120A5
:1017E000F8BD8268D20FEDD1606D20F0020040F0AC
:1017F0000100606584F850600846F8BDC0FFFF3FF7
:101800002DE9F84F00270446009790F85000DFF8C4
:10181000B8930D46B846012811D0012684F85060CF
:10182000206804F04DFA60B1606D40F02000606502
:101830005FF0010784F85080384600F0DDB90220DF
:10184000FBE768680C23052812D8022807D0032874
:1018500007D0042807D0052807D0062007E06B60D2
:1018600006E0122003E0182001E04FF48070686069
:10187000D5E90021206803EA91131844036B01F0B5
:101880001F014FF01F0C0CFA01FCC2F3846223EA23
:101890000C038A4013430363206804F011FA824664
:1018A000206804F009FA5AEA00001DD1AA682968E4
:1018B000206804F011FA20686969C268C2F3C102A5
:1018C000520091402A69042A0FD000EB82002B6855
:1018D000026EDFF8F8C203F0F84302EA0C020B4391
:1018E0001A4342F00041016672E0002104F0DEF983
:1018F000400320684FF0000172D004F0D7F990FA4D
:10190000A0F0B0FA80F1286842036ED090FAA0F0FF
:10191000B0FA80F0814204D100221146206804F020
:10192000EAF90121206804F0C1F9400320684FF072
:1019300001015DD004F0BAF990FAA0F0B0FA80F19C
:101940002868420359D090FAA0F0B0FA80F08142A2
:1019500004D100220121206804F0CDF90221206881
:1019600004F0A4F9400320684FF0020148D004F0CD
:101970009DF990FAA0F0B0FA80F12868420344D0B3
:1019800090FAA0F0B0FA80F0814204D10022022146
:10199000206804F0B0F90321206804F087F94003BF
:1019A00020684FF0030133D004F080F990FAA0F0E2
:1019B000B0FA80F1286842032FD090FAA0F0B0FA74
:1019C00080F0814204D100220321206804F093F9C1
:1019D0002068816811F0010F22D0ACE000E004E043
:1019E00004F064F9C0F384618DE7C0F3846091E78B
:1019F00004F05CF9C0F38461A2E7C0F38460A6E759
:101A000004F054F9C0F38461B7E7C0F38460BBE726
:101A100004F04CF9C0F38461CCE7C0F38460D0E7F4
:101A20002A7B296850F8B03FC1F3120C23EA0C035B
:101A300002F0180C664A22FA0CF20A4013430360C3
:101A4000E968494577D1286841031CD090FAA0F194
:101A5000B1FA81F1491C01F01F0109294FEA403117
:101A600032D8002912D000BF90FAA0F1B1FA81F16A
:101A700001F1010101F01F0106FA01F609D100BFD1
:101A8000C0F3846109E0C0F38461E3E7C0F38461DB
:101A9000EEE790FAA0F1B1FA81F101F1010101F054
:101AA0001F0146EA816102D1C0F3846003E090FA2D
:101AB000A0F0B0FA80F000F1010000F01F0000EB90
:101AC000400041EA005132E000290ED090FAA0F126
:101AD000B1FA81F101F1010101F01F0106FA01F6ED
:101AE00006D100BFC0F3846106E0C0F38461F1E772
:101AF00090FAA0F1B1FA81F101F1010101F01F01A9
:101B000046EA816102D1C0F3846003E090FAA0F05C
:101B1000B0FA80F000F1010000F01F002D4A00EB48
:101B2000400002EB005041EA000141F00071AA6858
:101B3000206804F0D1F828482A6802423FF47AAEBF
:101B400026488168264E274B274D01F0E071B242AE
:101B50001CD10E021AD422689A4202D0AA427FF403
:101B600069AE826841F4000122F0E0720A438260AB
:101B70001E481F490068B0FBF1F000EB40008000F8
:101B800000E0401E00900028FBD153E6194EB242FF
:101B900009D1CE0107D422689A4201D0AA42F4D1D9
:101BA00041F080710AE06FF00045EA42EDD14A024F
:101BB000EBD422689A42E8D141F48001826822F095
:101BC000E0720A43826035E600007F4000F0FF03C8
:101BD000FFFF0700000020FE000008800003045003
:101BE000000052C70000045000020450B40100205D
:101BF000400D0300000084CB18BCBDE8E08F00005E
:101C000070B504000FD0606D40F0020060650321E4
:101C10002046FEF797FE05002068C16841F40011D8
:101C2000C16002D008E0012070BD2046FEF7F8FE3A
:101C3000050001D101206065206841686FF30A0149
:101C40004160216840F2FF7008602068816821F0DF
:101C5000A04181602068816841F000518160206866
:101C6000C168424A1140C1602068C16841F000412A
:101C7000C160206801696FF30A0101612068416950
:101C800001F0404141612068816901F07841816142
:101C90002068016A01F0F02101622068416A01F0C8
:101CA000FF2141622068816A01F0FF218162206882
:101CB000016B2F4A114001632068426B2C49103997
:101CC0000A4042632068826B0A4082632068C16BCD
:101CD00040F2DF729143C16321680A6E25480240D9
:101CE0000A6621684A6E02404A6621688A6E02408E
:101CF0008A662168CA6E0240CA66206850F8A01F32
:101D00006FF312010160206850F8A41F6FF31201F5
:101D10000160206850F8B01F6FF312010160206865
:101D200050F8B41F21F07F11016013488168134AF5
:101D300001F00101926802F001021143104A926819
:101D400002F00102114305D1D0F808130D4A1140E9
:101D5000C0F80813204600F0FFF80020A065E065F9
:101D60002066606584F85000284670BD04800080BD
:101D7000300882E000F0FF0300000450000104502E
:101D800000020450E01000FE0068006C7047000084
:101D9000F8B54FF0000504002E46009502D0606DA6
:101DA00010B107E00120F8BD204600F0D6F8A66586
:101DB00084F8506020688168C1F3407119B181686E
:101DC0005B4A1140816020688168C1F3007179B974
:101DD0008168584A114041F0805181605648574906
:101DE0000068B0FBF1F000E0401E00900028FBD13D
:101DF00020688168C1F3007141B9616D41F0100143
:101E00006165A16D41F00101A165012503F058FF55
:101E1000616DC90600D430B1606D40F0100060659E
:101E200001252846F8BD606D20F4807040F0020066
:101E300060652068806810F0010F15D14048806807
:101E4000404900F00100896801F0010108433E4962
:101E5000896801F00101084306D13C4960688A683D
:101E600022F47C1202438A60E168606B627E084360
:101E7000A16841EA4231084394F8201040EA014049
:101E8000012904D1A18C324A02EB41410843A16AE5
:101E900029B101F47071E26A014342EA010022684B
:101EA000D1682C4B19400143D160206803F008FF32
:101EB0000646206803F000FF304315D1207E94F8D9
:101EC00030102268800340EA4101D06844F20203E6
:101ED00098430843D06094F8380001280CD020685B
:101EE000016921F001010161206901282068016B6D
:101EF00021F00F0111D013E0D4E90F010843D4E918
:101F000011121143084321680A6940F2FC739A4395
:101F1000104340F001000861E6E7E269521E1143F8
:101F20000163606D20F0020040F00100606578E719
:101F3000C0FFFF5FC0FFFF7FB4010020400D030022
:101F4000000004500001045000020450000304503B
:101F50000000FEFF07C0F0FF704770472DE9F04119
:101F6000044639480F46816801F01F056169082958
:101F70000FD085B1052D0ED0092D0CD0806800F44E
:101F8000604060B1606D40F0200060650120BDE8F8
:101F9000F081082604E02068C068C007F1E7042645
:101FA00000F0B8FB804608E0781C06D000F0B2FBD9
:101FB000A0EB0800B8420FD877B120680068304223
:101FC000F2D0606D40F400706065206803F07CFE24
:101FD000D0B1607E48B117E0606D40F004006065EC
:101FE000002084F850000320D1E720680068000733
:101FF0000AD5606D20F480706065606DC00403D404
:10200000606D40F001006065104A20681049904200
:1020100001D10B4600E00346834210D07DB1052D6F
:102020000DD0092D0BD0904200D00146C968082E72
:1020300007D0490401D40C2101600020A7E7C16842
:10204000F5E70821F8E70000000304500001045000
:10205000000004502DE9F04104463748806800F044
:102060001F05206803F02CFE18B102210846BDE8C8
:10207000F08194F8500001280CD0012084F8500021
:102080002046FEF701FD01004FF0000304D084F864
:102090005030EBE70220EAE7606D40F601629043C2
:1020A00040F480706065254A2068254E904201D139
:1020B000374600E00746874200D01DB9676D27F418
:1020C00080176765676DFF0404D5A76D27F00607C5
:1020D000A76500E0A3651C27076084F850302068DE
:1020E000904201D1334600E00346834215D0A5B1AA
:1020F000052D12D0092D10D0636D43F48013636554
:10210000904200D13046C0688001AFD5606D20F4A8
:10211000005040F480506065A8E7C268920105D580
:10212000626D22F4005242F4805262658268054B6F
:102130001A40121D826099E7000304500001045008
:1021400000000450C0FFFF7F0248416821F00101F8
:1021500041607047002004E00248416821F004011A
:1021600041607047002004E00248416821F002010C
:1021700041607047002004E010B590F8251000245D
:10218000022903D00421C16301241AE001680A680E
:1021900022F00E020A6001680A6822F001020A6059
:1021A00090F84410036C01F01C02012101FA02F2C4
:1021B0005A6080F82510002180F82410816B01B14D
:1021C0008847204610BDF0B4016C0C6801680D68AA
:1021D00090F8442002F01C06042202FA06F323427F
:1021E00011D06B070FD50B689B0603D40B6823F047
:1021F00004030B6090F8441001F01C018A40016C4C
:102200004A60016B1DE0022303FA06F727424FF0F4
:10221000000C4FF0010218D0AF0716D50C68A406C9
:1022200005D40C6824F00A040C6080F8252090F88E
:10223000441001F01C018B40016C4B6080F824C0FD
:10224000C16A00291AD0F0BC08470823B3402342D2
:1022500014D02B0712D50B6823F00E030B6090F8F7
:102260004410036C01F01C0102FA01F15960C263D1
:1022700080F8252080F824C0416BE2E7F0BC70476D
:1022800070B568B12B4C036814212B4AA34209D2C4
:102290002A4C1C44B4FBF1F18900C0E910210BE089
:1022A000012070BD234C64421C44B4FBF1F1890051
:1022B0004164204908390164022180F825101C6816
:1022C00047F6F0718C43D0E902152943D0E9045652
:1022D0003543294385692943C5692943056A29434B
:1022E000214319608168B1F5804F19D0036C0F212B
:1022F000934202D152F8A83F02E00E4AA03213687E
:1023000090F8444004F01C04A1408B43136090F803
:102310004430416803F01C0399401368194311606D
:102320000021C163012280F8252080F8241008468E
:1023300070BD00000804024000000240F8FFFDBF2D
:1023400070B5044690F82400002501280CD0012027
:1023500084F8240094F825600020012E06D084F82B
:1023600024000225284670BD022070BD022684F894
:102370002560E0632068066826F0010606602046B6
:10238000FFF708F8206B00282068016802D041F0B0
:102390000E0106E021F0040101602068016841F0AF
:1023A0000A0101602068016841F001010160D9E77C
:1023B00011B4009818BC02F095BF00002DE9F84F49
:1023C00000230126DFF834C10F2791E006FA03F459
:1023D00014EA01027ED023F003056544AA46D5F82D
:1023E00008909D074FEA157E07FA0EF505EA090BDE
:1023F0000095B0F1904F05D0414DA84205D14FF066
:10240000010822E04FF000081FE03E4DA84202D133
:102410004FF0020819E03C4DA84202D14FF00308EA
:1024200013E03A4DA84202D14FF004080DE0384DB8
:10243000A84202D14FF0050807E0364DA84202D16C
:102440004FF0060801E04FF0070808FA0EF8D845EB
:1024500024D1DFF8C480D8F8009029EA0209C8F82E
:10246000009008F10408D8F8009029EA0209C8F899
:10247000009008F10408D8F8009029EA0209C8F889
:10248000009008F10408D8F800509543C8F80050AF
:10249000009ADAF808509543CAF80850D0F800803E
:1024A0004FEA4309032202FA09F248EA0208C0F897
:1024B0000080DD0800EB8505AA46D5F820804FEAAC
:1024C00043794FEAD96907FA09F528EA0508CAF8F5
:1024D000208000E00BE08568954385604568A54352
:1024E0004560C5689543C560C26AA243C2625B1C71
:1024F00031FA03F27FF46AAF00F010B80000014037
:102500000004004800080048000C00480010004883
:1025100000140048001800480004014018BCBDE841
:10252000E08F02F059BD0000044910B50A6802426C
:1025300002D00860FFF7F5FF10BD00001404014051
:102540002DE9F84FDFF898B100234FF0010C4FF060
:10255000030A4FF00F090BF1040EB9E00CFA03F473
:10256000224070D04D68022D01D0122D0ED1DD0811
:1025700000EB8508D8F820505E07F70E09FA07F639
:10258000B5430E69BE402E43C8F8206007685E0060
:1025900091F804800AFA06F508F00308AF4308FA38
:1025A00006F848EA0708C0F800804F68012F05D0F8
:1025B000022F03D0112F01D0122F13D1D0F8088091
:1025C000CF6828EA0508B74047EA08078760D0F8CF
:1025D00004800F7928EA0408C7F300179F4047EAF0
:1025E00008074760D1F804806FEA0807BF0706D1E3
:1025F000C76AA743C8F3C0049C403C43C462C46894
:10260000AC438D68B5402543C5604C68E4005ED599
:10261000344C256E45F001052566246E23F0030534
:1026200004F001040094304C2E19B4689D072F0F5C
:1026300009FA07F5AC43B0F1904F05D02B4DA842F5
:1026400004D101251CE042E0002519E0284DA842F4
:1026500001D1022514E0274DA84201D103250FE046
:10266000254DA84201D104250AE0244DA84201D1FC
:10267000052505E0224DA84201D1062500E00725E9
:10268000BD402543B560DBF800405D464E6894438D
:10269000F60300D514432C60DEF8004075464E6802
:1026A0009443B60300D514432C600D4D08352C68B7
:1026B0004E689443F60200D514432C60084D0C3547
:1026C0002C684E689443B60200D514432C605B1C02
:1026D0000A6832FA03F57FF441AF00F013B8000046
:1026E00000040140001002400000014000040048C6
:1026F00000080048000C0048001000480014004882
:102700000018004818BCBDE8E08F0AB1816170472D
:10271000816270470148806870470000B80100205E
:1027200010B5040013D0242084F84100206801680B
:1027300021F001010160204600F0CFF90020606423
:1027400084F8410044F8300FA074207410BD0120BB
:1027500010BD90F84100704770B5040004D094F8A3
:102760004100002510B106E0012070BD84F8405002
:10277000204600F0B3F9242084F841002068016865
:1027800021F0010101606068216820F0706008613B
:102790002068816821F400418160E0680128A06818
:1027A00007D040F4044021688860E068022803D024
:1027B00006E040F40040F6E721684FF4006048600E
:1027C00020684168114A114341602068C16821F4C2
:1027D0000041C160D4E904010843A16940EA012035
:1027E0002168C860D4E907010843216808602068AF
:1027F000016841F0010101606564202084F8410016
:10280000256384F84250002070BD00000080000263
:102810002DE9FF4F83B00446DDE9108790F84100B1
:10282000DDF848909A469346202874D15FEA080064
:1028300014D09FB194F8400001286CD0012084F896
:102840004000FFF767FF0646012200901923D103DD
:10285000204603F09BF9002871D103E04FF400708B
:1028600060646CE0222084F84100402084F842003B
:1028700000256564C4F8248067856563CDE900960A
:1028800053465A462046049903F006F910B184F8DD
:10289000405054E0618D3548FF274FF080784FF06D
:1028A000007AFF2904D927853A464346009005E07F
:1028B000618D2185009094F8282053462046049984
:1028C00003F04EF94B46002204212046009603F007
:1028D0005DF9A0BB2068406A616A0870606A401CAC
:1028E0006062208D401E81B22185608D401E608512
:1028F000608DD8B1D1B94B46002280212046009688
:1029000003F044F9D8B9608DFF2805D927853A46E8
:102910004346009506E026E0608D2085009594F8FA
:10292000282053462046049903F01AF9608D0028A8
:10293000C8D132464946204603F054F918B1012067
:1029400007B000F017B821682020C86121684A68E4
:10295000074B1A404A6084F8410084F8425084F8DA
:1029600040500020ECE70220EAE70000002400804D
:1029700000E800FE30BCBDE8C08F00002DE9FF4F2D
:1029800083B00446DDE9108790F84100DDF84890F7
:102990009A469346202871D15FEA080014D09FB16F
:1029A00094F84000012869D0012084F84000FFF726
:1029B000B1FE0646012200901923D103204603F000
:1029C000E5F800286ED103E04FF40070606469E020
:1029D000212084F84100402084F8420000256564ED
:1029E000C4F8248067856563CDE9009653465A464E
:1029F0002046049903F082F810B184F8405051E069
:102A0000608DFF274FF080784FF0007AFF2804D9BF
:102A100027853A464346009505E0608D2085009560
:102A200094F8282053462046049903F099F832463A
:102A30004946204603F0FCF8A0BB606A2168007894
:102A40008862606A401C6062608D401E6085208DD7
:102A5000401E80B22085618DD9B1D0B94B4600228D
:102A600080212046009603F091F8D8B9608DFF28A8
:102A700005D927853A464346009506E026E0608D55
:102A80002085009594F8282053462046049903F0A9
:102A900067F8608D0028CAD132464946204603F0C7
:102AA000A1F818B1012007B000F014B82068202167
:102AB000C16120684268064B1A40426084F84110A8
:102AC00084F8425084F840500020ECE70220EAE706
:102AD00000E800FE30BCBDE8C08F704770470000C2
:102AE000024881684268114481607047B801002043
:102AF00010B50024032000F05FF80F2000F007F865
:102B000008B1012401E000F005F8204610BD0020C6
:102B100070470000084882B0816D41F080518165A6
:102B2000816D01F080510091816821F40041816044
:102B300002B002F0F9BA00000010024000280DDBDC
:102B400000F01F02012191404009800000F1E020C7
:102B5000C0F88011BFF34F8FBFF36F8F704700280D
:102B600009DB00F01F02012191404009800000F1C3
:102B7000E020C0F800117047F0B40E4B1B680C4603
:102B8000C3F30223C3F10705042D00D90425191D41
:102B9000072901D2002300E0DB1E012606FA05F119
:102BA000491E214099409E40761E16403143F0BC9C
:102BB0000BF006BC0CED00E0064900F007020868C7
:102BC0004FF6FF03184040EA0220034A1043086012
:102BD000704700000CED00E00000FA050D490868A0
:102BE00020F4804008600C483222006850430B4AB1
:102BF000B0FBF2F0401C00E0401E4A69920501D58E
:102C00000028F9D14869800501D5032070470020CC
:102C10007047000000700040B401002040420F00E7
:102C20000248016841F48041016070470070004033
:102C30000A490A6822F007020A6009490A6842F054
:102C400004020A60012807D040BF20BF20BF0868E7
:102C500020F004000860704730BFF8E700700040C3
:102C600010ED00E00B490A6822F00702521C0A60CE
:102C700009490A6842F004020A60012807D040BFEF
:102C800020BF20BF086820F004000860704730BFF4
:102C9000F8E700000070004010ED00E00248006816
:102CA00000F4C060704700000070004010B50C4692
:102CB0000E49002848690FD0C043800501D5FFF7B1
:102CC000AFFF0B48016821F004010160012C0AD01C
:102CD00040BF20BF20BF10BD8005F2D5FFF77EFFAB
:102CE0000028F8D1EDE730BF10BD000000700040B3
:102CF00010ED00E0B0F5804F084601D0FFF798BF17
:102D0000FFF7B0BF2DE9F84F044600270088E54DD6
:102D10003E46010504F1200B1DD5606E78B1B0F57B
:102D2000800F11D0B0F5000F04D0B0F5400F22D0C5
:102D300001270FE0E86840F48030E8601BE00021E4
:102D4000201D07F09FF803E00021584607F030F9F6
:102D5000070010D03E462088C00426D5A06EC0B122
:102D6000B0F1807F1AD0B0F1007F0DD0B0F1407F7C
:102D700019D0012718E0D5F88800616E20F44000D2
:102D80000843C5F88800E6E7E86840F48030E8606A
:102D900009E00021201D07F075F803E000215846E6
:102DA00007F006F90746F7B13E46206880033AD59A
:102DB000A86D4FF00008C00009D4A86D40F0805005
:102DC000A865A86D4FF0010800F080500090DFF872
:102DD000D8A2DAF8001041F48071CAF80010FFF7A9
:102DE00099FC814610E0D5F88800A16E20F0407073
:102DF0000843C5F88800D8E7FFF78CFCA0EB090072
:102E0000022801D9032705E0DAF80000C005F3D550
:102E1000002F7CD04FEA0706B8F1000F03D0A86D51
:102E200020F08050A8652078C00707D0D5F888002A
:102E3000A16B20F003000843C5F8880020788007C4
:102E400007D5D5F88800E16B20F00C000843C5F8E1
:102E500088002078400707D5D5F88800216C20F03D
:102E600030000843C5F888002078000707D5D5F85A
:102E70008800616C20F0C0000843C5F88800207805
:102E8000C00607D5D5F88800A16C20F4407008432F
:102E9000C5F888002078800607D5D5F88800E16C51
:102EA00020F440600843C5F888002088800507D5D5
:102EB000D5F88800E16D20F440200843C5F888006B
:102EC0002088400507D5D5F88800216E20F44010F1
:102ED0000843C5F888002078400607D5D5F8880053
:102EE000216D20F440500843C5F888002078000682
:102EF00007D5D5F88800616D20F440400843C5F837
:102F000088002088C00509D5D5F8880000E01CE0BD
:102F1000A16D20F440300843C5F8880020884FF0A8
:102F2000006780044FF080684FD5D5F88800E16EC7
:102F300020F040600843C5F88800E06EB8423CD1FC
:102F4000E86840F48010E8603FE0D5F8900010F4A5
:102F5000407015D0D4F88410814211D0D5F890007B
:102F6000D5F8901020F4407041F48031C5F89010ED
:102F7000D5F8901021F48031C5F89010C5F8900074
:102F8000C00710D0FFF7C6FB074641F2883906E0BC
:102F9000FFF7C0FBC11B494501D903263CE7D5F823
:102FA00090008007F4D5D5F89000D4F8841020F470
:102FB00040700843C5F890002EE7404505D1012137
:102FC000201D06F05FFF00B106462068000317D5FC
:102FD000D5F88800216F20F040600843C5F88800CC
:102FE000206FB84204D1E86840F48010E86007E040
:102FF000404505D10121201D06F044FF00B10646E1
:103000002068400317D5D5F88800616F20F0406034
:103010000843C5F88800606FB84204D1E86840F4FE
:103020008010E86007E0404505D10121201D06F031
:1030300029FF00B10646208840041AD5D5F888003B
:10304000A16F20F040500843C5F88800A06FB0F190
:10305000805F03D0B0F1005F05D00AE00221201D9F
:1030600006F010FF03E00221584606F0A1FF00B170
:1030700006462088000407D5D5F88800E16F20F0C7
:1030800080400843C5F888002068C00307D555F87C
:10309000880FD4F8801020F00040084328603046A4
:1030A00000F004B8001002400070004018BCBDE8F9
:1030B000E08F00002DE9F0470F46050058D0404E44
:1030C000306800F00700B84209D2306820F00700ED
:1030D00038433060306800F00700B84248D12878A3
:1030E000384CC0072CD06868032811D0022812D0B1
:1030F000216898B1490500293ADAA16821F0030155
:103100000143A160FFF706FB804641F2883910E0D9
:1031100021688901EFE721688903ECE78907EAE77D
:10312000FFF7F8FAA0EB0801494502D90320BDE8F2
:10313000F087A068696800F00C00B0EB810FEFD158
:103140002878800705D5A068A96820F0F00008431A
:10315000A060306800F00700B8420BD9306820F05A
:10316000070038433060306800F00700B84201D0F3
:103170000120DCE72878400705D5A068E96820F43D
:10318000E0600843A0602878000706D5A068296998
:1031900020F4605040EAC100A06000F0CFF8A168C0
:1031A000094AC1F30311515C01F01F01C8400749EE
:1031B000086007480068BDE8F047FFF7A8BC0000BA
:1031C0000020024000100240A4FD0008B4010020CD
:1031D000B80100200F2202600C4A936803F0030339
:1031E0004360936803F0F0038360936803F4E06343
:1031F000C36092684FF4E06303EAD20202610448BC
:10320000006800F0070008607047000000100240EE
:103210000020024010B51F21016035490A685303A0
:103220004FF0000202D54FF4A02304E00B68DB034B
:1032300003D54FF48033436000E042600B68DC0745
:103240004FF0010301D0836100E082614C68C4F358
:103250000724C4610C6804F0F00404620C68E405FF
:1032600003D54FF48074C46000E0C2604C68C4F3BE
:1032700004640461D1F89040640702D50524846099
:1032800006E0D1F89040E40701D0836000E082605E
:10329000D1F89440E40701D0436100E0426142620A
:1032A0000A68D20102D50222826200E08362CA6803
:1032B00002F00302C262CA68C2F30212521C026325
:1032C000CA68C2F306224263CA68C2F34152521C62
:1032D0005200C263CA68C2F34162521C52000264C7
:1032E000C968890301D5112100E00721816310BD60
:1032F000001002400548064900688968054AC1F384
:103300000221515C01F01F01C8407047B401002048
:1033100000100240E4FD000805480649006889687D
:10332000054AC1F3C221515C01F01F01C84070473A
:10333000B401002000100240E4FD000870B52549EA
:10334000002318468A68CC6812F00C0204F00306C9
:10335000214C4FEA640509D00C2A05D0042A32D04A
:10336000082A00D1284670BD012E10D10B681B071A
:1033700004D4D1F89430C3F3032302E00B68C3F301
:103380000313164E56F82330DAB10C2AEBD1C86875
:1033900000F00300022818D0032818D01846CA6885
:1033A000CB68C2F30212C3F306234343521CB3FBA0
:1033B000F2F2C868C0F34160401C4000B2FBF0F07C
:1033C00070BD184670BD204670BD2046E7E7284610
:1033D000E5E70000001002400024F400B4FD0008FE
:1033E0002DE9F84304006ED0FD4DA86800F00C06EE
:1033F000E86800F003072078C00663D576B10C2E8C
:1034000001D1012F0AD0A0690028286878D040F0A7
:1034100001002860FFF77EF980465BE0286880079E
:1034200002D5A0690028DED0216A2868000703D5EC
:10343000286800F0F00004E0D5F89400F02202EAD9
:103440001010814216D9084606F036FE00283AD1FF
:10345000286840F0080028602868216A20F0F00001
:10346000084328606868E16920F47F4040EA012051
:10347000686015E0286840F0080028602868216A24
:1034800020F0F000084328606868E16920F47F407C
:1034900040EA01206860206A06F00EFE0028D6D1BE
:1034A000FFF74CFFA968CF4AC1F30311515C01F04B
:1034B0001F01C840CC490860CC480068FFF727FBD3
:1034C00000287DD12DE0C9E0FFF724F9A0EB08002A
:1034D000022876D828688007F6D5286840F00800CA
:1034E00028602868216A20F0F00008432860686896
:1034F000E16920F47F4040EA0120686011E0FFE7C5
:1035000020F001002860FFF705F9804606E000BFC3
:10351000FFF700F9A0EB08000228DAD82868800736
:10352000F6D42078C00740D0082E18D00C2E01D138
:10353000032F14D06068B0F5803F17D0B0F5A02FEE
:10354000286817D020F480302860286820F4802074
:1035500028606068E0B1FFF7DDF8804614E0286875
:10356000800322D56068002878D01EE0286840F4E7
:103570008030EDE740F480202860F7E7FFF7CAF8D5
:10358000A0EB08006428A4D828688003F6D50CE0D6
:10359000FFF7C0F8804605E0FFF7BCF8A0EB080095
:1035A000642896D828688003F6D4207880073BD515
:1035B000042E11D00C2E01D1022F0DD0E06801E0B5
:1035C0003EE19FE0002828681ED040F4807028600B
:1035D000FFF7A0F807460CE0286840050CD5E06826
:1035E0000028C1D008E000BFFFF794F8C01B0228F4
:1035F00093D828684005F7D56868217C20F0F850FA
:1036000040EA016068600FE020F480702860FFF7F6
:1036100081F8074605E000BFFFF77CF8C01B0228D1
:1036200070D828684005F7D42078000729D560694C
:103630000028D5F8940012D040F00100C5F894009D
:10364000FFF768F8074604E0FFF764F8C01B02289C
:1036500058D8D5F894008007F6D512E029E120F07B
:103660000100C5F89400FFF755F8074605E000BFD4
:10367000FFF750F8C01B022844D8D5F89400800703
:10368000F6D42078400768D5A86D0027C00008D47C
:10369000A86D40F08050A865A86D012700F080500B
:1036A000009053480168C90512D40168814641F46D
:1036B00080710160FFF72EF8804605E0FFF72AF8D9
:1036C000A0EB080002281DD8D9F80000C005F5D5E8
:1036D000A068012817D00528D5F8900018D020F050
:1036E0000100C5F89000D5F8900020F0040000BF5C
:1036F000C5F89000A06841F28839D0B1FFF70AF808
:10370000804611E06BE0D5F8900040F00100EFE753
:1037100040F00400C5F89000F5E700BFFEF7FAFF9F
:10372000A0EB080149455AD8D5F890008007F5D597
:103730000EE0FEF7EFFF804606E000BFFEF7EAFF6F
:10374000A0EB080149457AD8D5F890008007F5D458
:103750001FB1A86D20F08050A865A06AF0B30C2EB0
:1037600075D00228286820F08070286004D028686E
:1037700010F0205F51D054E0FEF7CCFF064604E085
:10378000FEF7C8FF801B022859D828688001F7D4AB
:10379000D4E90B016FF00F0202EB01110843A18F76
:1037A0005204490802EB4151626B41EA022108438D
:1037B00094F840104FF07E42490802EB4161084303
:1037C000A16B090940EA4140E9680A4A11400843EF
:1037D000E860286840F0807028600DE06BE02EE023
:1037E00000100240A4FD0008B4010020B801002030
:1037F000007000408C809DF9E86840F08070E860BF
:10380000FEF788FF044604E0FEF784FF001B022851
:1038100015D828688001F7D54DE0E86820F003004E
:10382000E860E86825490840E860FEF773FF044651
:1038300009E000BFFEF76EFF001B022803D903203A
:10384000BDE8F88303E028688001F3D433E0012861
:10385000F6D0E868E26A00F00301914229D1216BB9
:1038600000F0700209011039914222D1626B00F41C
:10387000FE41B1EB022F1CD1A26B00F40031072AEC
:1038800001D0012200E00022914212D1A18F00F468
:10389000C00249084905A1F50011914209D194F8E7
:1038A000401000F0C06049084906A1F10071814252
:1038B00001D00120C4E70020C2E70000FFFFEEFEB8
:1038C0000068503050F82100704708B5006850304B
:1038D00000EB81000090026008BD90F820100129E3
:1038E0001AD0012180F82010022280F821200368DC
:1038F000CA225A62036853225A620268936843F0EC
:10390000200393600368FF225A6280F8211000218F
:1039100080F8201008467047022070470AF086B8E9
:103920002DE9F047044690F82000012823D04FF0FD
:10393000010884F82080022084F821002268CA202F
:10394000506222685320506220680025FF26B1F59E
:10395000807F81684FF0030A4FF47A790ED021F40A
:10396000007181602068816821F400518160FEF758
:10397000D1FE074625E00220BDE8F08721F48071E2
:1039800081602068816821F480518160FEF7C2FE69
:10399000074604E0FEF7BEFEC01B484509D8206874
:1039A000C068C007F6D010E0FEF7B4FEC01B484563
:1039B00007D92068466284F821A084F820500320AB
:1039C000DAE72068C0688007EED52068466284F890
:1039D000218084F820500020CEE7000010B5006858
:1039E0000B4641680D480140080CD870C1F304240F
:1039F0005C7001F03F049C70C1F34231197052B900
:103A000006F09AFBD870587806F096FB58709878B4
:103A100006F092FB9870002010BD00003FFFFF00F1
:103A200010B50B460168896A596001680969C1F3DC
:103A30000E019960006801680D480140C1F305401E
:103A40001870C1F306245C7001F07F049C70890D2E
:103A5000D97052B906F070FB1870587806F06CFBFC
:103A60005870987806F068FB9870002010BD000030
:103A70007F7F7F0010B504004FF0010044D094F820
:103A8000210028B9002084F82000204600F040F8EA
:103A9000022084F821002168CA204862216853204E
:103AA0004862204606F05EFB00282DD12068816820
:103AB000164A11408160216888686268A3691043D2
:103AC00022691A43104388602168E0680861206811
:103AD0000169228941EA02410161204606F066FB44
:103AE000002811D12168CA6C22F00302CA646269FD
:103AF000E16911432268D36C1943D1642268FF2124
:103B00005162012184F8211010BD0000BFFF8FFF1A
:103B100000B5B3B0442122A8FCF79FFB882168467A
:103B2000FCF79BFB0420229000202C900120249085
:103B300022A8FFF755FC08B1FDF7E0FC4FF4003078
:103B40000090401221906846FFF7DCF808B1FDF7BD
:103B5000D5FC084850F8901F41F400410160002254
:103B600011462920FFF708F82920FEF7F8FF33B0A7
:103B700000BD0000001002402DE9F05F044690F8FF
:103B800020000B46012844D0012084F820000220A8
:103B900084F821002068002680684FEA4060BAB3AC
:103BA000002800DBDE7098781978DA7840EA014066
:103BB0005978090241EA8251084393F8201040EAFB
:103BC0000165D8695F6805435869216805439869AC
:103BD0000743CA204862216853204862586A4FF060
:103BE000FF08B0F5807F20684FF0030B4FF47A7A1E
:103BF00081682BD021F4007181602068C16801F0D8
:103C0000800161F42071C160FEF784FD814652E0BD
:103C100002E0022000F078B8002800DBDE7018789F
:103C200006F093FA0504587806F08FFA45EA002565
:103C3000987806F08AFA0543D87845EA805593F8D3
:103C4000200006F082FA45EA0065BAE721F48071A7
:103C500081602068C16801F0800161F4C071C160B9
:103C6000FEF758FD814605E0FEF754FDA0EB090084
:103C7000504517D82068C068C007F5D02068C561D6
:103C8000206847642068816841F480718160206801
:103C9000816841F480511FE0FEF73CFDA0EB090074
:103CA000504508D92168C1F8248084F821B084F8EF
:103CB00020600320AEE72068C0688007ECD520684C
:103CC0000562206887642068816841F40071816022
:103CD0002068816841F4005181600A48016841F41C
:103CE0008021016007480830016841F480210160AB
:103CF0002168C1F82480012084F8210084F8206024
:103D0000002087E70004014030BCBDE8C09F0000F0
:103D100070B5044690F820000B4601281BD0012600
:103D200084F82060022084F82100B2B19878D97814
:103D300040EA014558781978000240EA41300543CD
:103D40002168CA204862216853204862204606F054
:103D500009FAD0B120E0022070BD5878C10603D521
:103D600000F0EF000A305870D87806F0EEF905043C
:103D7000587806F0EAF945EA0025987806F0E5F962
:103D80000543187845EA4035DAE7084805402068D9
:103D90004560204606F00AFA2268FF21516208B900
:103DA00084F82160002184F8201070BD3FFFFF00DF
:103DB0002DE9F041044690F8200090460D46012878
:103DC00011D0012784F82070022084F82100216896
:103DD000CA204862216853204862204606F0C2F992
:103DE000002618B129E00220BDE8F0812068B8F172
:103DF000000F80684FEA406024D0002800DBEE709E
:103E0000A8782978EA7840EA01406978090241EA0D
:103E10008251084318490840216808602068816879
:103E200021F480218160D5E90301084321688A6873
:103E300010438860204606F0B9F92268FF215162DC
:103E4000A0B115E0002800DBEE70287806F07DF9BF
:103E50000304687806F079F943EA0023A87806F0AD
:103E600074F90343E87843EA8050D3E784F821707B
:103E700084F82060B8E700007F7F7F0070B50446BB
:103E80000068C16821F0A001C160FEF743FC05464F
:103E90004FF47A7607E000BFFEF73CFC401BB042CF
:103EA00001D9032070BD2068C0688006F4D50020C9
:103EB00070BD2DE9F041040005D00025A56294F8FD
:103EC0005D0018B107E00120BDE8F08184F85C5086
:103ED000204600F044F8022384F85D302068016831
:103EE00021F040010160E0684FF4E066B04201D982
:103EF000002101E04FF48051B0F5706F02D0B04264
:103F000000D0A562276B012227B9B04201D92363F3
:103F100000E02263D4E901031843D4E904363343B3
:103F20001843238B03F400731843E3691843236A8F
:103F30001843A36A184323681860636B606AA66914
:103F400018430427E36807EA164633431843084337
:103F500021684860256684F85D200020B4E770473A
:103F60002DE9F05F044690F85C0000270A9E1D468C
:103F700092468B464FF0010901280ED0012084F8AB
:103F80005C00FEF7C7FB804694F85D00616801287D
:103F90000CD0B1F5827F07D102E0022000F011B908
:103FA000A16809B9042801D0022700E1BBF1000F84
:103FB00024D0BAF1000F21D005B394F85D00042895
:103FC00002D0052084F85D0000202066C4F840A0DF
:103FD000A4F84650A4F84450C4F838B0E587A58743
:103FE000E0642065E0684FF4E061884201D8012D6B
:103FF00006D92068426822F4805205E00127D6E005
:104000002068426842F4805242602068026852068A
:1040100003D4026842F040020260E06888426068AF
:1040200045D908B1012D3AD1A06B21680088C8603C
:10403000A06B801CA063E08F401EE0872FE020680B
:10404000816889070FD5E18F69B1B9F1010F0AD1F4
:10405000A16B0988C160A06B801CA063E08F401E2B
:10406000E0874FF0000920688168C9070FD0B4F8D5
:10407000461061B1C068216C0880206C801C2064EF
:10408000B4F84600401EA4F846004FF00109FEF7C0
:1040900041FBA0EB0800B04201D3701C75D1E08F4A
:1040A0000028CCD1B4F846000028C8D176E008B189
:1040B000012D6CD1E08F0128A06B08D92168008800
:1040C000C860A06B801CA063E08F801E07E02168A1
:1040D00000780873A06B401CA063E08F401EE0874F
:1040E00055E02068816889071AD5E18FC1B1B9F11F
:1040F000010F15D1E18F0129A16B07D90988C16092
:10410000A06B801CA063E08F801E06E0097801731D
:10411000A06B401CA063E08F401EE0874FF00009B9
:1041200020688168C90728D0B4F8461029B3B4F8CC
:104130004610012914D9C068216C0880206C801CAD
:104140002064B4F84600801EA4F84600B4F8460087
:10415000012810D82068416841F4805141600AE08C
:10416000007B216C0870206C401C2064B4F8460071
:10417000401EA4F846004FF00109FEF7CBFAA0EB71
:104180000800B04202D3701C01D018E0BEB1E08F2D
:104190000028A6D1B4F846000028A2D142463146F4
:1041A000204607F073F910B1012720202066012076
:1041B00084F85D00002084F85C003846EEE60327B2
:1041C000F5E730BCBDE8C09F704770472DE9F0416E
:1041D00002680446D0691168936810F00F0F4FF021
:1041E00000055BD003F0010601F49077374369D0F6
:1041F000C70707D0CF0505D501271762E26F42F048
:104200000102E267820708D5DA0706D02768022292
:104210003A62E26F42F00402E267420708D5DA0729
:1042200006D0236804221A62E26F42F00202E267BB
:1042300002070AD501F02002324306D02368082283
:104240001A62E26F42F00802E267E26F002A32D09F
:10425000800605D5880603D5216E09B1204688471A
:10426000E06F21688968490601D4000725D52046FA
:1042700009F0F9FD20688168490619D5816821F0A7
:1042800040018160E06E98B120498163E06EFDF7E6
:1042900073FF00280FD0E06E816B06E0860611D513
:1042A0008E060FD5216E1EE02046BDE8F04108477E
:1042B0002046FFF78AFFBDE8F0812046FFF785FF23
:1042C000E567F8E7C60209D55B0207D54FF4801011
:1042D00010622046BDE8F041FFF776BF030605D522
:1042E0000B0603D5616E0029DED1E4E74006E2D576
:1042F0004806E0D51168204621F0400111602021D8
:104300006167656600F0C8F9D5E70000D1DD0008F7
:1043100010B5040002D0606F10B107E0012010BD9D
:10432000002084F87000204600F052F824206067D6
:104330002068016821F001010160204609F004FEB7
:104340000128ECD0606A10B1204609F0B1FC206869
:10435000416821F4904141602068816821F02A0180
:1043600081602068016841F0010101602046BDE8DC
:10437000104009F001BD000010B5114A0168114854
:1043800091420BD1016E21F4804101664FF4C0616E
:104390004FF09040FEF712F825200BE00A4A9142B8
:1043A0000CD1816D21F48021816530210748FEF711
:1043B00005F82720BDE81040FEF7C0BB10BD000087
:1043C000003801400010024000480040000800484A
:1043D00038B52D490546C86C40F00100C864C86C6A
:1043E00000F001000090C86C40F00100C864C86C87
:1043F00000F001000090886D40F400308865886D01
:1044000000F400300090886D40F400308865886DBD
:1044100000F400300090886C40F001008864886CE3
:1044200000F0010000900BF085FB194C17480021AB
:1044300020601020C4E902018020C4E90401A161C8
:10444000E1610220216260602046FDF719FFAC6641
:10445000012200211120A562FEF78EFB1120FEF73C
:104460007EFB012200212620FEF786FB2620FEF798
:1044700076FB012211462620FEF77EFBBDE8384080
:104480002620FEF76CBB00000010024080000240B6
:10449000E409002070B586B0044614216846FBF795
:1044A000DCFE294E25680021284802220323072428
:1044B000B54221D1056E45F480450566056E05F4CB
:1044C00080450595C56C45F00105C564C06C02AD1D
:1044D00000F00100059085E81A005802CDE90002BD
:1044E00069464FF09040FEF72BF80022012125206D
:1044F000FEF742FB252022E0154EB54221D1856D05
:1045000045F480258565856D05F480250595C56C88
:1045100045F00405C564C06C02AD00F004000590D0
:1045200085E81A003020CDE9000269460948FEF707
:1045300007F8002201212720FEF71EFB2720FEF7A7
:104540000EFB06B070BD00000038014000100240B4
:10455000004800400008004830B5836F202B4BD145
:10456000B1B1AAB190F87030012B45D0012380F889
:1045700070304165A0F85820A0F85A20002101664B
:104580001D038268FF23AA4207D1026912B125E008
:10459000012030BD40F2FF1226E07F24E2B1B2F1EB
:1045A000805F1ED0A0F85C10C1672222826702687B
:1045B000936843F0010393608268AA4201D10269C3
:1045C000C2B10E4A026680F870100068016841F4BA
:1045D00090710160002030BD026942B9A0F85C30E2
:1045E000E2E702691AB13F22A0F85C20DCE7A0F8FC
:1045F0005C40D9E7024AE5E7022030BDEFDE000863
:1046000095DE00087047000070B50446406F202812
:104610003AD159B352B394F87000012834D0012034
:1046200084F87000E164A4F85020A4F8522000251A
:10463000E56721206067A06ED0B11449C162A16E08
:10464000134813460863A16E12484863A06E856341
:104650002668E16C06F12802A06EFDF771FE38B104
:104660001020E06784F8705020206067012070BD42
:1046700021684020086284F870502068816841F009
:1046800080018160002070BD022070BD2DDE000819
:104690005DDE0008E5DD0008014800680047000015
:1046A0000C020020704738B504466B4601222021D9
:1046B00000F017FA68B99DF800006B4640F08000E2
:1046C0008DF8000001222021204600F07DFB00280B
:1046D00000D0012038BD38B5044600208DF8000018
:1046E0006946204600F045F9012805D020789DF85C
:1046F0000010884201D0012038BD002038BD38B5F7
:1047000004466B460122202100F0EBF968B99DF8C0
:1047100000006B4620F080008DF80000012220216F
:10472000204600F051FB002800D0012038BD38B5EC
:1047300014460D466B460122272100F0D2F908B13C
:10474000012038BD9DF80000C0F3400028709DF89E
:10475000000000F001002070002038BD10B50B46AD
:1047600001220F2100F0BDF9002800D0012010BD6A
:104770002DE9F843884681466B460222302100F03D
:10478000B0F9F0B99DF800006B4644089DF80100AF
:10479000022247083621484600F0A3F988B9BDF93E
:1047A00000506B4602223A21484600F09AF940B97F
:1047B000BDF900606B4602222821484600F091F9BD
:1047C00010B10120BDE8F883BDF900001A49401B73
:1047D00000EE100A381BF8EEC00A00EE100A701B3B
:1047E000B8EEC00A60EE800A00EE100AB8EEC00A09
:1047F00080EE801A00EE104AF2EE040AB8EEC00A0B
:1048000031EE000A20EE200A10EE100A884202DD86
:104810004FF47A700BE0B5EEC00AF1EE10FA01D257
:10482000002004E0BCEEC00A10EE100A80B2A8F826
:1048300000000020C6E7000000007A4438B50C46AE
:10484000694600F023F801280DD09DF8000058B10A
:1048500001280CD0022810D0032811D0BFEE000A86
:1048600084ED000A012038BD9FED070A01E0B7EE94
:10487000000A84ED000A002038BDB1EE0C0AF8E70A
:10488000B2EE090AF5E700000000000038B50C465A
:104890006B460122202100F024F908B1012038BD27
:1048A0009DF8000000F003008DF80000207000204B
:1048B00038BD2DE9FC47884681466B4602223221ED
:1048C00000F00FF940BB01AB01223521484600F052
:1048D00008F908BB9DF804009DF8001000F00302E1
:1048E00041EA02219DF8012000F00C0042EA80100C
:1048F000CC10C7106B4604223C21484600F0F1F86A
:1049000050B9BDF90050BDF902606B4602222A2160
:10491000484600F0E6F810B1012000F027B8BDF9D4
:104920000000401B00EE100A381BF8EEC00A00EE33
:10493000100A701BB8EEC00A20EE801A00EE100AB2
:10494000B8EEC00AC1EE000A00EE104AB8EEC00A86
:1049500030EE800AF2EE040A20EE200ABDEEC00A14
:1049600010EE100AA8F800000020D6E70CBCBDE845
:10497000F08710B5FFF7F2FE012800D0002010BD2F
:10498000FFF7A9BE10B5044680680068006840784B
:1049900020B9204600F052F8012805D0A168002077
:1049A000096809680870E07010BD1CB50C4601AAC2
:1049B0006946FFF7BCFE012805D09DF8000018B13C
:1049C000012801D001201CBD207000201CBD38B57D
:1049D0000D460024ADF800406946FFF7C9FE0128E6
:1049E0000CD0BDF80000F2EE040A00EE100A2046DA
:1049F000B8EE400A80EE201A85ED001A38BDFFF7A8
:104A00001DBFFFF7B6BF10B5044680680068006898
:104A1000407820B9204600F04BF8012806D0A16864
:104A20000120096809680870E070002010BD10B509
:104A300000F065F8012800D0002010BD10B5044634
:104A4000007900280FD0A06800680068C07820B9FD
:104A5000204600F05DF8012805D0A1680020096813
:104A600009688870207110BD10B5044600790128CE
:104A700005D0A06800680068C07810B106E000208A
:104A800010BD204600F04BF80128F9D0A1680120A4
:104A90000968096888702071F1E700F08BB800F0B0
:104AA0009DB810B500F09EF9012800D0002010BD7F
:104AB00010B50446FFF70FFE012811D02046FFF77E
:104AC0001EFE01280CD00121204600F02FF80128FD
:104AD00006D00021204600F06DF8012800D000200B
:104AE00010BD10B51C46012A01D941F080011346C2
:104AF000224608F083FD002800D0012010BD10B52B
:104B000013460122FFF7EDFF012800D0002010BD61
:104B100010B5FFF7F4FD012800D0002010BD10B53E
:104B2000FFF7C1FD012800D0002010BD38B50C46AC
:104B30000546012905D024B140F263210DA000F003
:104B40005BF96B4601222021FFF7CBFF78B99DF876
:104B500000006B4620F0040040EA84008DF800005D
:104B600001222021284600F02FF9002800D0012042
:104B700038BD00002E2E5C2E2E5C2E2E5C2E2E5C60
:104B80002E2E5C2E2E5C447269766572735C4253E5
:104B9000505C436F6D706F6E656E74735C68747398
:104BA0003232315C4854533232315F447269766537
:104BB000722E630010B505290DD2DFE801F0030560
:104BC00005050500012100E0032100F01FF8012880
:104BD00000D0002010BD012010BD000010EE101A02
:104BE00010B5B1F17E5F01DC012107E010EE101A73
:104BF000054A914201DC022100E0032100F006F8A1
:104C0000012800D0002010BD0000E04038B50C00A5
:104C100005460AD0012C08D0022C06D0032C04D063
:104C200040F2BA210CA000F0E7F86B4601222021E7
:104C3000FFF757FF70B99DF800006B4620F00300A6
:104C400020438DF8000001222021284600F0BCF806
:104C5000002800D0012038BD2E2E5C2E2E5C2E2E7A
:104C60005C2E2E5C2E2E5C2E2E5C44726976657254
:104C7000735C4253505C436F6D706F6E656E7473FE
:104C80005C6874733232315C4854533232315F4461
:104C900072697665722E6300FFF71DBD10B504467C
:104CA000806800680068007820B9204600F052F85B
:104CB000012805D0A1680020096809684870E070E3
:104CC00010BD1CB50C466A4601A9FFF730FD01284E
:104CD00005D09DF8000018B1012801D001201CBDAD
:104CE000207000201CBDFFF7A9BD38B50D4600247B
:104CF000ADF800406946FFF7DCFD01280CD0BDF996
:104D00000000F2EE040A00EE100A2046B8EEC00AD7
:104D100080EE201A85ED001A38BDFFF72ABE10B5C7
:104D20000446806800680068007820B92046FFF7D4
:104D3000BFFE012806D0A1680120096809684870F3
:104D4000E070002010BD10B5FFF7D9FE012800D09B
:104D5000002010BD10B50446007900280FD0A068CF
:104D600000680068807820B92046FFF7D1FE01284E
:104D700005D0A168002009680968C870207110BDBD
:104D800010B504460079012805D0A06800680068C5
:104D9000807810B106E0002010BD2046FFF7BFFE6E
:104DA0000128F9D0A168012009680968C87020713C
:104DB000F1E7FFF7FFBEFFF711BF10B500F012F8E3
:104DC000012800D0002010BD10B51C46012A01D9D1
:104DD00041F080011346224608F028FC002800D04C
:104DE000012010BD07B502AB0122FFF7EDFF01283E
:104DF00000D000200EBD00000A46014601A009F0C7
:104E0000A5FAFEE757726F6E6720706172616D657B
:104E1000746572732076616C75653A2066696C659D
:104E2000202573206F6E206C696E652025640D0A45
:104E3000000000000249002008700248FCF7E0BEB4
:104E40000802002080090020154882B0017800295E
:104E500023D101210170144812494FF480320160BE
:104E6000002180F838104260017681600161C160E4
:104E7000417680F8201004224261C16280F830102F
:104E80000A48C16C41F40051C164C06C00F4005088
:104E90000090054802B0FCF77BBF02B070470000ED
:104EA0000802002000000450800900200010024089
:104EB00070B588B0064618216846FBF7CEF9002584
:104EC000FFF7C2FF1648007838B3164CE06C40F488
:104ED0000050E064E06C7F2100F40050069012481E
:104EE000FCF746FC042002900620CDE900606946EC
:104EF0000D48FCF785FC0C48FDF7ACF8691E0A4824
:104F0000FDF72CF80848FCF73FFF85B20648FBF791
:104F100087FDE06C20F40050E06408B0284670BDC6
:104F200008020020001002408009002001460020F5
:104F30000A0A00D008204FF2F002114201D040F0DE
:104F400004004CF6CC42114201D040F002004AF677
:104F5000AA22114201D040F00100704718B41C4B46
:104F6000B0F1904F10D01B4C041915D0B4F5806FE0
:104F70001FD0B4F5006FDC6C23D044F08004DC64F7
:104F8000DB6C03F080030EE0DC6C44F00104DC64B5
:104F9000DB6C03F0010306E0DC6C44F00204DC642B
:104FA000DB6C03F002030093116018BC1146FDF79F
:104FB000C7BADC6C44F00404DC64DB6C03F004036B
:104FC000F1E744F00804DC64DB6C03F00803EAE773
:104FD0000010024000FCFFB710B5FFF7A7FF05491E
:104FE00051F82010002903D0BDE8104000200847E8
:104FF00010BD00001C05002070B51C4615460E466D
:105000000846FFF793FF0A4974B141F82040304643
:1050100003F0ACFD044600222946FDF7ADFD204615
:10502000BDE87040FDF79BBD002241F8202070BD17
:105030001C050020D2B2FDF768BB000010B5064881
:10504000FFF736FF30B1054940F6B83209885143C1
:10505000B1FBF0F080B210BD01000080AA75FF1F07
:1050600005490548091D006809684840024908319A
:1050700009684840704700009075FF1F10B513483D
:10508000FFF716FFF8B1124940F6B83209885143CC
:10509000B1FBF0F40F48FFF70BFF604340F6B83167
:1050A000B0FBF1F10A480A4A801E203200881288BB
:1050B000091A01EB81010903101A91FBF0F000F5C8
:1050C000F05080B210BD0024E4E700000100008031
:1050D000AA75FF1F000052C7124A10B511490832C5
:1050E0000B68146823441B0EC3710B6814682344B7
:1050F0001B0C83710B88148823441B0A43710978A5
:105100001278114401710749091D0A68120EC27014
:105110000A68120C82700A88120A427009780170BB
:1051200010BD00009075FF1F10B586B014216846B1
:10513000FBF793F8464CE06C40F00100E064E06C53
:1051400000F001000590E06C40F00200E064E06CCB
:1051500000F002000590E06C40F00400E064E06CB8
:1051600000F004000590E06C40F00800E064E06CA2
:1051700000F008000590E06C40F01000E064E06C86
:1051800000F010000590E06C40F02000E064E06C5E
:1051900000F020000590E06C40F04000E064E06C1E
:1051A00000F040000590E06C40F08000E064E06CAE
:1051B000694600F0800005900320019000200290D5
:1051C00049F6FF7000904FF09040FDF7B9F94FF6A7
:1051D000FF70009069461F48FDF7B2F969461E4806
:1051E000FDF7AEF969461D48FDF7AAF969461C4866
:1051F000FDF7A6F969461B48FDF7A2F969461A486A
:10520000FDF79EF969461948FDF79AF9E06C20F020
:105210000100E064E06C20F00200E064E06C20F04B
:105220000400E064E06C20F00800E064E06C20F032
:105230001000E064E06C20F02000E064E06C20F0FE
:105240004000E064E06C20F08000E06406B010BD37
:10525000001002400004004800080048000C00480C
:10526000001000480014004800180048001C0048C6
:1052700010B50A4C607800280ED1FFF7E5FD08480C
:105280000068804700F030FA00F0CEF808F0A0FC8B
:10529000FBF7D2FE0120607010BD00000802002064
:1052A00030FD000870B50C46054600210448FEF7A5
:1052B00007FB286001210248FEF702FB206070BD59
:1052C0005C05002010B50C46024600210448FEF79C
:1052D000FCFA2246BDE8104001210148FEF7F5BA6C
:1052E0005C05002070B5410EC0017D220023FAF755
:1052F00067FF054600F090F8044600E000BF00F0AC
:105300008BF8001BA842F9D370BD10B586B00446D7
:10531000694605A800F00CF8830A43EA8153C0F3FC
:10532000090000F0BDF9208006B0184610BD00004D
:105330002DE9F04105460C4600222748FEF770FB98
:10534000264FB86A002286B229462348FEF746FB5C
:10535000002221462048FEF763FBB86A80B2B042C3
:10536000EFD1E87840F2B55110FB01F1C91C8A0871
:1053700080072ED01A486B7803EB4301C1EB8311F1
:105380005B009B1ED8403C3900F0030001EBD1715B
:10539000C0EB61001044A978401E084411492278EE
:1053A00048436178C2EB4213C1EB01118900C3EBA2
:1053B000022201EB0211A27810440844810D8302FD
:1053C0006068A0F2FF304042181841F10001BDE8CA
:1053D000F0810548CFE700005C0500200028004070
:1053E000A0AA990080510100505544000320704745
:1053F0000148006870470000A805002000B587B08C
:10540000694605A8FFF794FF0249096807B0401AEA
:1054100000BD0000A805002000B587B0694605A8BA
:10542000FFF786FF07B000BD10B5084C20780028B4
:105430000AD100F051F84FF480710548FEF770FA78
:1054400000F07CF80120207010BD0000D001002089
:105450005C05002010B50E4C0021042000F086FFF2
:105460000C494FF48020086021688868C0040DD57D
:10547000C868C0050AD5C86800F0800060F4C07034
:10548000C8602046BDE81040FEF748BA10BD0000D5
:105490005C0500201404014070B50446FFF7AEFF20
:1054A0000C4D211AB5F90200C01C814201D900211E
:1054B00000E00121042000F059FF00F033FF012833
:1054C00002D1B5F90200241A2046BDE8704000F070
:1054D00041B80000D001002010B5174886B015492A
:1054E0000024C0E900141F21816040F2FF31C0E9AF
:1054F00003148461C461FEF7BDFA8DF817400120E2
:105500008DF815008DF816008DF81400002205A9FD
:105510000948FEF7FDFB00940194049400226946BB
:1055200005480394FEF744FC0348FEF7D6F906B09D
:1055300010BD0000002800405C05002010B5044CA0
:10554000211D04F11800FFF7F3FE206010BD0000DC
:10555000A805002070B586B005461422414968466A
:10556000FAF762FE3F485038446E00F081F8019827
:10557000C5F30901A0F2FF30404208443A4A86B21E
:10558000AB0AC4F30740514202E0401C134480B20E
:105590008B42FAD29DF800204FF4616103E0521C67
:1055A00092B2A3F561638B42F9D29DF8011002E03B
:1055B000491C89B23C3B3C2BFAD29DF802502B444B
:1055C0009DB24FF4806304E0A6F580666D1CB6B210
:1055D000ADB29E42F8D203E03C3D491CADB289B267
:1055E0003C2DF9D203E03C39521C89B292B23C29DD
:1055F000F9D203E0183A401C92B280B2182AF9D2CC
:10560000230E9B07C4F3072429D0184B5B1EE35CD1
:10561000834203D2B0FBF3F403FB1400114BA6F258
:10562000FF362C3B74425C604FF020649C619D709F
:1056300059701A7083F820009DF80300D87000207C
:10564000D86158614FF48071D86059620246186180
:105650001946A1F12400FEF78FFA06B070BD034B86
:105660000C33D3E7AC05002080AEFEFFECFD000854
:1056700010B54FF480710848FEF752F906480068EB
:10568000C16801F0800161F4C071C16003494FF449
:105690008020086010BD00005C050020140401405B
:1056A000810A4FF47A72C0F30900514310FB02F0F3
:1056B00001EB9020704710B5410EC0017D22002300
:1056C000FAF77EFD10BD000001B582B04FF0FF304B
:1056D0000090012301AA02A90248FEF741FCBDF88F
:1056E00004000EBDC405002008B51D481B491E4A14
:1056F00001601C4B0021126803E05208491C072975
:1057000001D29A42F9D8302202EAC102C90700D078
:1057100008210A43C26100214FF48272C0E90121CD
:10572000016141614FF4E0628162C26001624FF445
:105730000072826141620D48016E41F48051016640
:10574000006E00F4805000900548FEF7B2FB08B1EF
:10575000FBF7D4FEBDE8084000F048B80030014037
:10576000C405002080969800B4010020001002407B
:1057700030B585B014216846FAF76FFD012000248A
:10578000CDE901044FF090456A4680212846FFF795
:10579000E5FB002280212846FFF74CFC0220029006
:1057A0006A4640212846FFF7D9FB002240212846BF
:1057B000FFF740FC6A46202128460294FFF7CEFB03
:1057C000002220212846FFF735FC0294064C6A4649
:1057D00040212046FFF7C2FB012240212046FFF76F
:1057E00029FC05B030BD00000004004830B585B08C
:1057F00014216846FAF731FD02200024CDE90104A6
:105800000320039005204FF0904504906A46202124
:105810002846FFF7A3FB6A4640212846FFF79EFB78
:105820006A4680212846FFF799FB0120CDE9010453
:10583000064C6A4640212046FFF790FB012240219A
:105840002046FFF7F7FB05B030BD0000000400481C
:105850002DE9F0412D4C06460027D4F884040D466E
:1058600090F8F000022802D02948406B804701F0F0
:1058700087FB30B1022001F09AFB002001F075FB9C
:105880000127D4F8840490F8F000012816D101F023
:105890007DFB48B1002001F08DFB002001F080FB72
:1058A00001F072FB18B92CE001F06EFB30B1002062
:1058B00001F07EFB002001F06FFB22E00FBB94F8AB
:1058C0008004002894F8140402D0012808D009E0CC
:1058D000012801D184F83D64304601F04FFD10E00D
:1058E00084F83D54284601F049FDD4F8840490F82A
:1058F000F000022805D094F8810440F0200084F8DC
:105900008104BDE8F04108F0BFBC0000800C00201D
:1059100030FD000800BFFDE710B50348FCF700FFAD
:10592000BDE8104000F002B87004002010B50D482A
:10593000FCF70FFF68B90B480B49416033218160C8
:105940000121C1600949016000F012F80548FCF727
:1059500003FF0448FCF7FDFE202801D0012010BD04
:10596000002010BD700400203A14D11000540040F3
:1059700010B51D4C86B0E06C40F00200E064E06CB5
:10598000694600F0020005904FF44070009012202C
:1059900001900220039000200290042004901348FC
:1059A000FCF7CEFDA06D40F40010A065A06D00F4E2
:1059B00000100590A06B40F40010A063A06B20F4D1
:1059C0000010A063002211461F20FDF7D5F81F200C
:1059D000FDF7C5F8002211462020FDF7CDF8202064
:1059E000FDF7BDF806B010BD0010024000040048ED
:1059F00001688A69D243920701D400228A62006852
:105A00008169C943C90703D0816941F001018161FE
:105A1000704700002DE9F0410446006890460E46AC
:105A20008069C043C00633D40025202720688069E0
:105A3000C043800615D5701CF8D0FCF76BFEA0EBB8
:105A40000800B04201D8002EF0D154F8440F40F0C5
:105A5000200044F804096770A57025700120BDE896
:105A6000F08121681020C8612068C7612046FFF7D7
:105A7000BFFF54F8440B4168064A1140416020685A
:105A800040F0040044F820096777A5772577E5E71B
:105A90000020E4E700E800FE2DE9F843044616463E
:105AA000DDE9089714489846DAB2009000232046B2
:105AB00000F056F83A464946204600F0B9F8B8B921
:105AC000F5B2B8F1010F08D02168300A88623A4671
:105AD0004946204600F0ACF850B9206885624B4634
